{
  "contractName": "Farmer",
  "abi": [
    {
      "anonymous": false,
      "inputs": [
        {
          "indexed": false,
          "internalType": "string",
          "name": "cropName",
          "type": "string"
        },
        {
          "indexed": false,
          "internalType": "uint256",
          "name": "quantity",
          "type": "uint256"
        },
        {
          "indexed": false,
          "internalType": "uint256",
          "name": "price",
          "type": "uint256"
        },
        {
          "indexed": false,
          "internalType": "string",
          "name": "placeOfOrigin",
          "type": "string"
        },
        {
          "indexed": true,
          "internalType": "address",
          "name": "farmer",
          "type": "address"
        }
      ],
      "name": "CropAdded",
      "type": "event"
    },
    {
      "anonymous": false,
      "inputs": [
        {
          "indexed": true,
          "internalType": "address",
          "name": "farmer",
          "type": "address"
        },
        {
          "indexed": false,
          "internalType": "string",
          "name": "name",
          "type": "string"
        },
        {
          "indexed": false,
          "internalType": "string",
          "name": "location",
          "type": "string"
        },
        {
          "indexed": false,
          "internalType": "string",
          "name": "phone",
          "type": "string"
        },
        {
          "indexed": false,
          "internalType": "string",
          "name": "email",
          "type": "string"
        }
      ],
      "name": "FarmerRegistered",
      "type": "event"
    },
    {
      "inputs": [
        {
          "internalType": "address",
          "name": "",
          "type": "address"
        },
        {
          "internalType": "uint256",
          "name": "",
          "type": "uint256"
        }
      ],
      "name": "crops",
      "outputs": [
        {
          "internalType": "string",
          "name": "cropName",
          "type": "string"
        },
        {
          "internalType": "uint256",
          "name": "quantity",
          "type": "uint256"
        },
        {
          "internalType": "uint256",
          "name": "price",
          "type": "uint256"
        },
        {
          "internalType": "string",
          "name": "placeOfOrigin",
          "type": "string"
        }
      ],
      "stateMutability": "view",
      "type": "function"
    },
    {
      "inputs": [
        {
          "internalType": "address",
          "name": "",
          "type": "address"
        }
      ],
      "name": "farmerDetails",
      "outputs": [
        {
          "internalType": "string",
          "name": "name",
          "type": "string"
        },
        {
          "internalType": "string",
          "name": "location",
          "type": "string"
        },
        {
          "internalType": "string",
          "name": "phone",
          "type": "string"
        },
        {
          "internalType": "string",
          "name": "email",
          "type": "string"
        },
        {
          "internalType": "bytes32",
          "name": "passwordHash",
          "type": "bytes32"
        }
      ],
      "stateMutability": "view",
      "type": "function"
    },
    {
      "inputs": [
        {
          "internalType": "string",
          "name": "_name",
          "type": "string"
        },
        {
          "internalType": "string",
          "name": "_location",
          "type": "string"
        },
        {
          "internalType": "string",
          "name": "_phone",
          "type": "string"
        },
        {
          "internalType": "string",
          "name": "_email",
          "type": "string"
        },
        {
          "internalType": "string",
          "name": "_password",
          "type": "string"
        }
      ],
      "name": "registerFarmer",
      "outputs": [],
      "stateMutability": "nonpayable",
      "type": "function"
    },
    {
      "inputs": [
        {
          "internalType": "string",
          "name": "_cropName",
          "type": "string"
        },
        {
          "internalType": "uint256",
          "name": "_quantity",
          "type": "uint256"
        },
        {
          "internalType": "uint256",
          "name": "_price",
          "type": "uint256"
        },
        {
          "internalType": "string",
          "name": "_placeOfOrigin",
          "type": "string"
        }
      ],
      "name": "addAndGetCrop",
      "outputs": [],
      "stateMutability": "nonpayable",
      "type": "function"
    },
    {
      "inputs": [],
      "name": "getCrops",
      "outputs": [
        {
          "components": [
            {
              "internalType": "string",
              "name": "cropName",
              "type": "string"
            },
            {
              "internalType": "uint256",
              "name": "quantity",
              "type": "uint256"
            },
            {
              "internalType": "uint256",
              "name": "price",
              "type": "uint256"
            },
            {
              "internalType": "string",
              "name": "placeOfOrigin",
              "type": "string"
            }
          ],
          "internalType": "struct Farmer.Crop[]",
          "name": "",
          "type": "tuple[]"
        }
      ],
      "stateMutability": "view",
      "type": "function"
    },
    {
      "inputs": [],
      "name": "getFarmerDetails",
      "outputs": [
        {
          "components": [
            {
              "internalType": "string",
              "name": "name",
              "type": "string"
            },
            {
              "internalType": "string",
              "name": "location",
              "type": "string"
            },
            {
              "internalType": "string",
              "name": "phone",
              "type": "string"
            },
            {
              "internalType": "string",
              "name": "email",
              "type": "string"
            },
            {
              "internalType": "bytes32",
              "name": "passwordHash",
              "type": "bytes32"
            }
          ],
          "internalType": "struct Farmer.FarmerDetails",
          "name": "",
          "type": "tuple"
        }
      ],
      "stateMutability": "view",
      "type": "function"
    }
  ],
  "bytecode": "0x608060405234801561001057600080fd5b506110cb806100206000396000f3fe608060405234801561001057600080fd5b50600436106100625760003560e01c80633b1bdb21146100675780635f073f3a1461008557806389dbd75a1461009a578063a4a123f1146100af578063be255e0f146100d2578063d6576fb6146100f6575b600080fd5b61006f610109565b60405161007c9190610f88565b60405180910390f35b61008d610381565b60405161007c9190610e06565b6100ad6100a8366004610c7e565b610521565b005b6100c26100bd366004610c55565b610646565b60405161007c9493929190610f57565b6100e56100e0366004610c34565b6107a3565b60405161007c959493929190610ef7565b6100ad610104366004610d4a565b6109f1565b610111610acc565b3360009081526001602052604090819020815160a0810190925280548290829061013a90611044565b80601f016020809104026020016040519081016040528092919081815260200182805461016690611044565b80156101b35780601f10610188576101008083540402835291602001916101b3565b820191906000526020600020905b81548152906001019060200180831161019657829003601f168201915b505050505081526020016001820180546101cc90611044565b80601f01602080910402602001604051908101604052809291908181526020018280546101f890611044565b80156102455780601f1061021a57610100808354040283529160200191610245565b820191906000526020600020905b81548152906001019060200180831161022857829003601f168201915b5050505050815260200160028201805461025e90611044565b80601f016020809104026020016040519081016040528092919081815260200182805461028a90611044565b80156102d75780601f106102ac576101008083540402835291602001916102d7565b820191906000526020600020905b8154815290600101906020018083116102ba57829003601f168201915b505050505081526020016003820180546102f090611044565b80601f016020809104026020016040519081016040528092919081815260200182805461031c90611044565b80156103695780601f1061033e57610100808354040283529160200191610369565b820191906000526020600020905b81548152906001019060200180831161034c57829003601f168201915b50505050508152602001600482015481525050905090565b33600090815260208181526040808320805482518185028101850190935280835260609492939192909184015b8282101561051857838290600052602060002090600402016040518060800160405290816000820180546103e190611044565b80601f016020809104026020016040519081016040528092919081815260200182805461040d90611044565b801561045a5780601f1061042f5761010080835404028352916020019161045a565b820191906000526020600020905b81548152906001019060200180831161043d57829003601f168201915b50505050508152602001600182015481526020016002820154815260200160038201805461048790611044565b80601f01602080910402602001604051908101604052809291908181526020018280546104b390611044565b80156105005780601f106104d557610100808354040283529160200191610500565b820191906000526020600020905b8154815290600101906020018083116104e357829003601f168201915b505050505081525050815260200190600101906103ae565b50505050905090565b6000816040516020016105349190610dea565b60408051601f19818403018152828252805160209182012060a08401835289845283820189905283830188905260608401879052608084018190523360009081526001835292909220835180519395508493919261059792849290910190610afe565b5060208281015180516105b09260018501920190610afe565b50604082015180516105cc916002840191602090910190610afe565b50606082015180516105e8916003840191602090910190610afe565b5060808201518160040155905050336001600160a01b03167f9fe5db5a947da0c0731ba06de46a441db6d74692514248b61436a8664e9a7475888888886040516106359493929190610e9f565b60405180910390a250505050505050565b6000602052816000526040600020818154811061066257600080fd5b90600052602060002090600402016000915091505080600001805461068690611044565b80601f01602080910402602001604051908101604052809291908181526020018280546106b290611044565b80156106ff5780601f106106d4576101008083540402835291602001916106ff565b820191906000526020600020905b8154815290600101906020018083116106e257829003601f168201915b50505050509080600101549080600201549080600301805461072090611044565b80601f016020809104026020016040519081016040528092919081815260200182805461074c90611044565b80156107995780601f1061076e57610100808354040283529160200191610799565b820191906000526020600020905b81548152906001019060200180831161077c57829003601f168201915b5050505050905084565b6001602052600090815260409020805481906107be90611044565b80601f01602080910402602001604051908101604052809291908181526020018280546107ea90611044565b80156108375780601f1061080c57610100808354040283529160200191610837565b820191906000526020600020905b81548152906001019060200180831161081a57829003601f168201915b50505050509080600101805461084c90611044565b80601f016020809104026020016040519081016040528092919081815260200182805461087890611044565b80156108c55780601f1061089a576101008083540402835291602001916108c5565b820191906000526020600020905b8154815290600101906020018083116108a857829003601f168201915b5050505050908060020180546108da90611044565b80601f016020809104026020016040519081016040528092919081815260200182805461090690611044565b80156109535780601f1061092857610100808354040283529160200191610953565b820191906000526020600020905b81548152906001019060200180831161093657829003601f168201915b50505050509080600301805461096890611044565b80601f016020809104026020016040519081016040528092919081815260200182805461099490611044565b80156109e15780601f106109b6576101008083540402835291602001916109e1565b820191906000526020600020905b8154815290600101906020018083116109c457829003601f168201915b5050505050908060040154905085565b604080516080810182528581526020808201869052818301859052606082018490523360009081528082529283208054600181018255908452928190208251805193948594600490910290920192610a4e92849290910190610afe565b5060208281015160018301556040830151600283015560608301518051610a7b9260038501920190610afe565b505050336001600160a01b03167fc3c663a992469eb74a68303b920a49d0b420b1b72343ce7d1f4a24c35c4a97b586868686604051610abd9493929190610f57565b60405180910390a25050505050565b6040518060a0016040528060608152602001606081526020016060815260200160608152602001600080191681525090565b828054610b0a90611044565b90600052602060002090601f016020900481019282610b2c5760008555610b72565b82601f10610b4557805160ff1916838001178555610b72565b82800160010185558215610b72579182015b82811115610b72578251825591602001919060010190610b57565b50610b7e929150610b82565b5090565b5b80821115610b7e5760008155600101610b83565b80356001600160a01b0381168114610bae57600080fd5b919050565b600082601f830112610bc3578081fd5b813567ffffffffffffffff80821115610bde57610bde61107f565b604051601f8301601f191681016020018281118282101715610c0257610c0261107f565b604052828152848301602001861015610c19578384fd5b82602086016020830137918201602001929092529392505050565b600060208284031215610c45578081fd5b610c4e82610b97565b9392505050565b60008060408385031215610c67578081fd5b610c7083610b97565b946020939093013593505050565b600080600080600060a08688031215610c95578081fd5b853567ffffffffffffffff80821115610cac578283fd5b610cb889838a01610bb3565b96506020880135915080821115610ccd578283fd5b610cd989838a01610bb3565b95506040880135915080821115610cee578283fd5b610cfa89838a01610bb3565b94506060880135915080821115610d0f578283fd5b610d1b89838a01610bb3565b93506080880135915080821115610d30578283fd5b50610d3d88828901610bb3565b9150509295509295909350565b60008060008060808587031215610d5f578384fd5b843567ffffffffffffffff80821115610d76578586fd5b610d8288838901610bb3565b955060208701359450604087013593506060870135915080821115610da5578283fd5b50610db287828801610bb3565b91505092959194509250565b60008151808452610dd6816020860160208601611014565b601f01601f19169290920160200192915050565b60008251610dfc818460208701611014565b9190910192915050565b60208082528251828201819052600091906040908185019080840286018301878501865b83811015610e9157603f19898403018552815160808151818652610e5082870182610dbe565b9150508882015189860152878201518886015260608083015192508582038187015250610e7d8183610dbe565b968901969450505090860190600101610e2a565b509098975050505050505050565b600060808252610eb26080830187610dbe565b8281036020840152610ec48187610dbe565b90508281036040840152610ed88186610dbe565b90508281036060840152610eec8185610dbe565b979650505050505050565b600060a08252610f0a60a0830188610dbe565b8281036020840152610f1c8188610dbe565b90508281036040840152610f308187610dbe565b90508281036060840152610f448186610dbe565b9150508260808301529695505050505050565b600060808252610f6a6080830187610dbe565b8560208401528460408401528281036060840152610eec8185610dbe565b600060208252825160a06020840152610fa460c0840182610dbe565b90506020840151601f1980858403016040860152610fc28383610dbe565b92506040860151915080858403016060860152610fdf8383610dbe565b9250606086015191508085840301608086015250610ffd8282610dbe565b915050608084015160a08401528091505092915050565b60005b8381101561102f578181015183820152602001611017565b8381111561103e576000848401525b50505050565b60028104600182168061105857607f821691505b6020821081141561107957634e487b7160e01b600052602260045260246000fd5b50919050565b634e487b7160e01b600052604160045260246000fdfea2646970667358221220add897661cae79cbfa6e0603f21d8f2efcda2f77d30ff76c4d8475ba8ca1397164736f6c63430008000033",
  "immutableReferences": {},
  "source": "// SPDX-License-Identifier: MIT\r\npragma solidity ^0.8.0;\r\n\r\ncontract Farmer {\r\n    struct Crop {\r\n        string cropName;\r\n        uint256 quantity;\r\n        uint256 price;\r\n        string placeOfOrigin;\r\n    }\r\n\r\n    struct FarmerDetails {\r\n        string name;\r\n        string location;\r\n        string phone;\r\n        string email;\r\n        bytes32 passwordHash; // Storing password securely as a hash\r\n    }\r\n\r\n    // Event declaration\r\n    event CropAdded(string cropName, uint256 quantity, uint256 price, string placeOfOrigin, address indexed farmer);\r\n    event FarmerRegistered(address indexed farmer, string name, string location, string phone, string email);\r\n\r\n    mapping(address => Crop[]) public crops;\r\n    mapping(address => FarmerDetails) public farmerDetails;\r\n\r\n    // Function to register farmer details\r\n    function registerFarmer(string memory _name, string memory _location, string memory _phone, string memory _email, string memory _password) public {\r\n        // Hash the password before storing it\r\n        bytes32 passwordHash = keccak256(abi.encodePacked(_password));\r\n        FarmerDetails memory newFarmer = FarmerDetails(_name, _location, _phone, _email, passwordHash);\r\n        farmerDetails[msg.sender] = newFarmer;\r\n        \r\n        // Emit event\r\n        emit FarmerRegistered(msg.sender, _name, _location, _phone, _email);\r\n    }\r\n\r\n    // Function to add crop and emit an event\r\n    function addAndGetCrop(string memory _cropName, uint256 _quantity, uint256 _price, string memory _placeOfOrigin) public {\r\n        Crop memory newCrop = Crop(_cropName, _quantity, _price, _placeOfOrigin);\r\n        crops[msg.sender].push(newCrop);\r\n        \r\n        // Emit event\r\n        emit CropAdded(_cropName, _quantity, _price, _placeOfOrigin, msg.sender);\r\n    }\r\n\r\n    // Function to fetch crops of the specific farmer\r\n    function getCrops() public view returns (Crop[] memory) {\r\n        return crops[msg.sender];\r\n    }\r\n\r\n    // Function to fetch farmer details\r\n    function getFarmerDetails() public view returns (FarmerDetails memory) {\r\n        return farmerDetails[msg.sender];\r\n    }\r\n}\r\n",
  "sourcePath": "C:\\xampp\\htdocs\\block\\contracts\\Farmer.sol",
  "compiler": {
    "name": "solc",
    "version": "0.8.0+commit.c7dfd78e.Emscripten.clang"
  },
  "schemaVersion": "3.4.16",
  "updatedAt": "2024-10-21T20:37:14.499Z",
  "devdoc": {
    "kind": "dev",
    "methods": {},
    "version": 1
  },
  "userdoc": {
    "kind": "user",
    "methods": {},
    "version": 1
  }
}