{
  "contractName": "Inspector",
  "abi": [
    {
      "inputs": [
        {
          "internalType": "address",
          "name": "_farmerContractAddress",
          "type": "address"
        }
      ],
      "stateMutability": "nonpayable",
      "type": "constructor"
    },
    {
      "inputs": [
        {
          "internalType": "address",
          "name": "farmerAddress",
          "type": "address"
        }
      ],
      "name": "fetchFarmerDetails",
      "outputs": [
        {
          "internalType": "string",
          "name": "name",
          "type": "string"
        },
        {
          "internalType": "string",
          "name": "location",
          "type": "string"
        },
        {
          "internalType": "string",
          "name": "phone",
          "type": "string"
        },
        {
          "internalType": "string",
          "name": "email",
          "type": "string"
        }
      ],
      "stateMutability": "view",
      "type": "function"
    },
    {
      "inputs": [
        {
          "internalType": "address",
          "name": "farmerAddress",
          "type": "address"
        }
      ],
      "name": "fetchCropsForFarmer",
      "outputs": [
        {
          "components": [
            {
              "internalType": "string",
              "name": "cropName",
              "type": "string"
            },
            {
              "internalType": "uint256",
              "name": "quantity",
              "type": "uint256"
            },
            {
              "internalType": "uint256",
              "name": "price",
              "type": "uint256"
            },
            {
              "internalType": "string",
              "name": "placeOfOrigin",
              "type": "string"
            }
          ],
          "internalType": "struct I1Farmer.Crop[]",
          "name": "",
          "type": "tuple[]"
        }
      ],
      "stateMutability": "view",
      "type": "function"
    }
  ],
  "bytecode": "0x608060405234801561001057600080fd5b5060405161067538038061067583398101604081905261002f91610054565b600080546001600160a01b0319166001600160a01b0392909216919091179055610082565b600060208284031215610065578081fd5b81516001600160a01b038116811461007b578182fd5b9392505050565b6105e4806100916000396000f3fe608060405234801561001057600080fd5b50600436106100365760003560e01c806391c9d1c71461003b578063f0ca3df414610067575b600080fd5b61004e610049366004610218565b610087565b60405161005e94939291906104e6565b60405180910390f35b61007a610075366004610218565b610123565b60405161005e919061044d565b60005460405163699ae67d60e11b81526060918291829182916001600160a01b039091169063d335ccfa906100c0908890600401610439565b60006040518083038186803b1580156100d857600080fd5b505afa1580156100ec573d6000803e3d6000fd5b505050506040513d6000823e601f3d908101601f191682016040526101149190810190610365565b93509350935093509193509193565b60005460405163e44097d360e01b81526060916001600160a01b03169063e44097d390610154908590600401610439565b60006040518083038186803b15801561016c57600080fd5b505afa158015610180573d6000803e3d6000fd5b505050506040513d6000823e601f3d908101601f191682016040526101a89190810190610246565b92915050565b600082601f8301126101be578081fd5b815167ffffffffffffffff8111156101d8576101d8610598565b6101eb601f8201601f191660200161053e565b8181528460208386010111156101ff578283fd5b610210826020830160208701610568565b949350505050565b600060208284031215610229578081fd5b81356001600160a01b038116811461023f578182fd5b9392505050565b60006020808385031215610258578182fd5b825167ffffffffffffffff8082111561026f578384fd5b818501915085601f830112610282578384fd5b81518181111561029457610294610598565b6102a1848583020161053e565b81815284810190848601875b8481101561035657815187016080818d03601f190112156102cc57898afd5b60408051608081018181108a821117156102e8576102e8610598565b8252828b0151898111156102fa578c8dfd5b6103088f8d838701016101ae565b825250818301518b820152606083015182820152608083015191508882111561032f578b8cfd5b61033d8e8c848601016101ae565b60608201528652505092870192908701906001016102ad565b50909998505050505050505050565b6000806000806080858703121561037a578283fd5b845167ffffffffffffffff80821115610391578485fd5b61039d888389016101ae565b955060208701519150808211156103b2578485fd5b6103be888389016101ae565b945060408701519150808211156103d3578384fd5b6103df888389016101ae565b935060608701519150808211156103f4578283fd5b50610401878288016101ae565b91505092959194509250565b60008151808452610425816020860160208601610568565b601f01601f19169290920160200192915050565b6001600160a01b0391909116815260200190565b60208082528251828201819052600091906040908185019080840286018301878501865b838110156104d857603f198984030185528151608081518186526104978287018261040d565b91505088820151898601528782015188860152606080830151925085820381870152506104c4818361040d565b968901969450505090860190600101610471565b509098975050505050505050565b6000608082526104f9608083018761040d565b828103602084015261050b818761040d565b9050828103604084015261051f818661040d565b90508281036060840152610533818561040d565b979650505050505050565b60405181810167ffffffffffffffff8111828210171561056057610560610598565b604052919050565b60005b8381101561058357818101518382015260200161056b565b83811115610592576000848401525b50505050565b634e487b7160e01b600052604160045260246000fdfea26469706673582212209763c7bbdaaa85a919144134f1ec2d53a35e8cda9dff025380d8cb6c0d7f6c9c64736f6c63430008000033",
  "immutableReferences": {},
  "source": "// SPDX-License-Identifier: MIT\r\npragma solidity ^0.8.0;\r\n\r\ninterface I1Farmer {\r\n    struct FarmerDetail {\r\n        string name;\r\n        string location;\r\n        string phone;\r\n        string email;\r\n    }\r\n\r\n    struct Crop {\r\n        string cropName;\r\n        uint quantity;\r\n        uint price;\r\n        string placeOfOrigin;\r\n    }\r\n\r\n    function getFarmerDetails(address farmerAddress) external view returns (\r\n        string memory name,\r\n        string memory location,\r\n        string memory phone,\r\n        string memory email\r\n    );\r\n\r\n    function getCropsForFarmer(address farmerAddress) external view returns (Crop[] memory);\r\n}\r\n\r\ncontract Inspector {\r\n    I1Farmer farmerContract;\r\n\r\n    constructor(address _farmerContractAddress) {\r\n        farmerContract = I1Farmer(_farmerContractAddress);\r\n    }\r\n\r\n    // Fetch details of a specific farmer by iterating or directly referencing a known farmer address\r\n    function fetchFarmerDetails(address farmerAddress) public view returns (\r\n        string memory name, \r\n        string memory location, \r\n        string memory phone, \r\n        string memory email\r\n    ) {\r\n        return farmerContract.getFarmerDetails(farmerAddress);\r\n    }\r\n\r\n    // Fetch crops for a specific farmer\r\n    function fetchCropsForFarmer(address farmerAddress) public view returns (I1Farmer.Crop[] memory) {\r\n        return farmerContract.getCropsForFarmer(farmerAddress);\r\n    }\r\n}\r\n",
  "sourcePath": "C:\\xampp\\htdocs\\block\\contracts\\inspector.sol",
  "compiler": {
    "name": "solc",
    "version": "0.8.0+commit.c7dfd78e.Emscripten.clang"
  },
  "schemaVersion": "3.4.16",
  "updatedAt": "2024-10-21T20:37:14.514Z",
  "devdoc": {
    "kind": "dev",
    "methods": {},
    "version": 1
  },
  "userdoc": {
    "kind": "user",
    "methods": {},
    "version": 1
  }
}