{
  "contractName": "Manufacturer",
  "abi": [
    {
      "inputs": [
        {
          "internalType": "address",
          "name": "_farmerContractAddress",
          "type": "address"
        }
      ],
      "stateMutability": "nonpayable",
      "type": "constructor"
    },
    {
      "anonymous": false,
      "inputs": [
        {
          "indexed": true,
          "internalType": "address",
          "name": "manufacturer",
          "type": "address"
        },
        {
          "indexed": false,
          "internalType": "string",
          "name": "cropName",
          "type": "string"
        },
        {
          "indexed": false,
          "internalType": "bool",
          "name": "isSelected",
          "type": "bool"
        }
      ],
      "name": "CropAction",
      "type": "event"
    },
    {
      "inputs": [],
      "name": "owner",
      "outputs": [
        {
          "internalType": "address",
          "name": "",
          "type": "address"
        }
      ],
      "stateMutability": "view",
      "type": "function"
    },
    {
      "inputs": [],
      "name": "viewCropDetails",
      "outputs": [
        {
          "components": [
            {
              "internalType": "string",
              "name": "cropName",
              "type": "string"
            },
            {
              "internalType": "uint256",
              "name": "quantity",
              "type": "uint256"
            },
            {
              "internalType": "uint256",
              "name": "price",
              "type": "uint256"
            },
            {
              "internalType": "string",
              "name": "placeOfOrigin",
              "type": "string"
            }
          ],
          "internalType": "struct IFarmer.Crop[]",
          "name": "",
          "type": "tuple[]"
        }
      ],
      "stateMutability": "view",
      "type": "function"
    },
    {
      "inputs": [],
      "name": "viewFarmerDetails",
      "outputs": [
        {
          "components": [
            {
              "internalType": "string",
              "name": "name",
              "type": "string"
            },
            {
              "internalType": "string",
              "name": "location",
              "type": "string"
            },
            {
              "internalType": "string",
              "name": "phone",
              "type": "string"
            },
            {
              "internalType": "string",
              "name": "email",
              "type": "string"
            }
          ],
          "internalType": "struct IFarmer.Farmer",
          "name": "",
          "type": "tuple"
        }
      ],
      "stateMutability": "view",
      "type": "function"
    },
    {
      "inputs": [
        {
          "internalType": "string",
          "name": "_cropName",
          "type": "string"
        }
      ],
      "name": "selectCrop",
      "outputs": [],
      "stateMutability": "nonpayable",
      "type": "function"
    },
    {
      "inputs": [
        {
          "internalType": "string",
          "name": "_cropName",
          "type": "string"
        }
      ],
      "name": "rejectCrop",
      "outputs": [],
      "stateMutability": "nonpayable",
      "type": "function"
    },
    {
      "inputs": [
        {
          "internalType": "string",
          "name": "_cropName",
          "type": "string"
        }
      ],
      "name": "getCropStatus",
      "outputs": [
        {
          "internalType": "bool",
          "name": "",
          "type": "bool"
        }
      ],
      "stateMutability": "view",
      "type": "function"
    }
  ],
  "bytecode": "0x608060405234801561001057600080fd5b506040516109ce3803806109ce83398101604081905261002f91610062565b60008054336001600160a01b031991821617909155600180549091166001600160a01b0392909216919091179055610090565b600060208284031215610073578081fd5b81516001600160a01b0381168114610089578182fd5b9392505050565b61092f8061009f6000396000f3fe608060405234801561001057600080fd5b50600436106100625760003560e01c80631a6069ed146100675780634a66ac941461007c5780638da5cb5b1461009a57806391e547a6146100af578063ad7bfa2f146100cf578063f702ddce146100e2575b600080fd5b61007a610075366004610527565b6100f7565b005b610084610194565b60405161009191906107e3565b60405180910390f35b6100a261022b565b60405161009191906106b7565b6100c26100bd366004610527565b61023a565b6040516100919190610764565b61007a6100dd366004610527565b61025f565b6100ea6102df565b60405161009191906106cb565b6000546001600160a01b0316331461012a5760405162461bcd60e51b815260040161012190610793565b60405180910390fd5b600061013582610360565b60008181526002602052604090819020805460ff19166001908117909155905191925033917fd6c12f2947bbc32976514eb938936a5353be5683947a87ad2af79b5debbece1c916101889186919061076f565b60405180910390a25050565b61019c610390565b600160009054906101000a90046001600160a01b03166001600160a01b0316633b1bdb216040518163ffffffff1660e01b815260040160006040518083038186803b1580156101ea57600080fd5b505afa1580156101fe573d6000803e3d6000fd5b505050506040513d6000823e601f3d908101601f19168201604052610226919081019061059b565b905090565b6000546001600160a01b031681565b60008061024683610360565b60009081526002602052604090205460ff169392505050565b6000546001600160a01b031633146102895760405162461bcd60e51b815260040161012190610793565b600061029482610360565b600081815260026020526040808220805460ff191690555191925033917fd6c12f2947bbc32976514eb938936a5353be5683947a87ad2af79b5debbece1c916101889186919061076f565b60015460408051632f839f9d60e11b815290516060926001600160a01b031691635f073f3a916004808301926000929190829003018186803b15801561032457600080fd5b505afa158015610338573d6000803e3d6000fd5b505050506040513d6000823e601f3d908101601f191682016040526102269190810190610408565b600081604051602001610373919061069b565b604051602081830303815290604052805190602001209050919050565b6040518060800160405280606081526020016060815260200160608152602001606081525090565b600082601f8301126103c8578081fd5b81516103db6103d68261088b565b610861565b8181528460208386010111156103ef578283fd5b6104008260208301602087016108b3565b949350505050565b6000602080838503121561041a578182fd5b825167ffffffffffffffff80821115610431578384fd5b818501915085601f830112610444578384fd5b815181811115610456576104566108e3565b6104638485830201610861565b81815284810190848601875b8481101561051857815187016080818d03601f1901121561048e57898afd5b60408051608081018181108a821117156104aa576104aa6108e3565b8252828b0151898111156104bc578c8dfd5b6104ca8f8d838701016103b8565b825250818301518b82015260608301518282015260808301519150888211156104f1578b8cfd5b6104ff8e8c848601016103b8565b606082015286525050928701929087019060010161046f565b50909998505050505050505050565b600060208284031215610538578081fd5b813567ffffffffffffffff81111561054e578182fd5b8201601f8101841361055e578182fd5b803561056c6103d68261088b565b818152856020838501011115610580578384fd5b81602084016020830137908101602001929092525092915050565b6000602082840312156105ac578081fd5b815167ffffffffffffffff808211156105c3578283fd5b90830190608082860312156105d6578283fd5b6105e06080610861565b8251828111156105ee578485fd5b6105fa878286016103b8565b82525060208301518281111561060e578485fd5b61061a878286016103b8565b602083015250604083015182811115610631578485fd5b61063d878286016103b8565b604083015250606083015182811115610654578485fd5b610660878286016103b8565b60608301525095945050505050565b600081518084526106878160208601602086016108b3565b601f01601f19169290920160200192915050565b600082516106ad8184602087016108b3565b9190910192915050565b6001600160a01b0391909116815260200190565b60208082528251828201819052600091906040908185019080840286018301878501865b8381101561075657603f198984030185528151608081518186526107158287018261066f565b9150508882015189860152878201518886015260608083015192508582038187015250610742818361066f565b9689019694505050908601906001016106ef565b509098975050505050505050565b901515815260200190565b600060408252610782604083018561066f565b905082151560208301529392505050565b60208082526030908201527f4f6e6c792074686520636f6e7472616374206f776e65722063616e207065726660408201526f37b936903a3434b99030b1ba34b7b71760811b606082015260800190565b6000602082528251608060208401526107ff60a084018261066f565b90506020840151601f198085840301604086015261081d838361066f565b9250604086015191508085840301606086015261083a838361066f565b9250606086015191508085840301608086015250610858828261066f565b95945050505050565b60405181810167ffffffffffffffff81118282101715610883576108836108e3565b604052919050565b600067ffffffffffffffff8211156108a5576108a56108e3565b50601f01601f191660200190565b60005b838110156108ce5781810151838201526020016108b6565b838111156108dd576000848401525b50505050565b634e487b7160e01b600052604160045260246000fdfea26469706673582212204ede694bf857d537c6165a2f885fd2d3adec5e41c5cc3ad388352a59b5887f2264736f6c63430008000033",
  "immutableReferences": {},
  "source": "// SPDX-License-Identifier: MIT\r\npragma solidity ^0.8.0;\r\n\r\n// Interface for Farmer contract\r\ninterface IFarmer {\r\n    struct Crop {\r\n        string cropName;\r\n        uint256 quantity;\r\n        uint256 price;\r\n        string placeOfOrigin;\r\n    }\r\n\r\n    struct Farmer {\r\n        string name;\r\n        string location;\r\n        string phone;\r\n        string email;\r\n    }\r\n\r\n    function getCrops() external view returns (Crop[] memory);\r\n    function getFarmerDetails() external view returns (Farmer memory);\r\n}\r\n\r\ncontract Manufacturer {\r\n    address public owner;\r\n    IFarmer private farmerContract;\r\n\r\n    // Event to log crop selection or rejection\r\n    event CropAction(address indexed manufacturer, string cropName, bool isSelected);\r\n\r\n    // Mapping to store the status of crops (selected or rejected) based on crop name\r\n    mapping(bytes32 => bool) private cropStatus; // Use a hashed crop name for mapping\r\n\r\n    // Constructor to set the farmer contract address\r\n    constructor(address _farmerContractAddress) {\r\n        owner = msg.sender; // Set the contract creator as the owner\r\n        farmerContract = IFarmer(_farmerContractAddress); // Initialize the farmer contract\r\n    }\r\n\r\n    // Modifier to restrict access to the contract owner\r\n    modifier onlyOwner() {\r\n        require(msg.sender == owner, \"Only the contract owner can perform this action.\");\r\n        _;\r\n    }\r\n\r\n    // Function to view crop details from the Farmer contract\r\n    function viewCropDetails() public view returns (IFarmer.Crop[] memory) {\r\n        return farmerContract.getCrops(); // Retrieve crops from the farmer contract\r\n    }\r\n\r\n    // Function to view farmer registration details\r\n    function viewFarmerDetails() public view returns (IFarmer.Farmer memory) {\r\n        return farmerContract.getFarmerDetails(); // Retrieve farmer details from the farmer contract\r\n    }\r\n\r\n    // Internal function to hash crop names\r\n    function _getCropHash(string memory _cropName) internal pure returns (bytes32) {\r\n        return keccak256(abi.encodePacked(_cropName));\r\n    }\r\n\r\n    // Function to select a crop\r\n    function selectCrop(string memory _cropName) public onlyOwner {\r\n        bytes32 cropHash = _getCropHash(_cropName);\r\n        cropStatus[cropHash] = true; // Set crop status to selected\r\n        emit CropAction(msg.sender, _cropName, true); // Emit event for crop selection\r\n    }\r\n\r\n    // Function to reject a crop\r\n    function rejectCrop(string memory _cropName) public onlyOwner {\r\n        bytes32 cropHash = _getCropHash(_cropName);\r\n        cropStatus[cropHash] = false; // Set crop status to rejected\r\n        emit CropAction(msg.sender, _cropName, false); // Emit event for crop rejection\r\n    }\r\n\r\n    // Function to get the selection status of a crop\r\n    function getCropStatus(string memory _cropName) public view returns (bool) {\r\n        bytes32 cropHash = _getCropHash(_cropName);\r\n        return cropStatus[cropHash]; // Return the selection status of the crop\r\n    }\r\n}\r\n",
  "sourcePath": "C:\\xampp\\htdocs\\block\\contracts\\Manufacturer.sol",
  "compiler": {
    "name": "solc",
    "version": "0.8.0+commit.c7dfd78e.Emscripten.clang"
  },
  "schemaVersion": "3.4.16",
  "updatedAt": "2024-10-21T20:37:14.507Z",
  "devdoc": {
    "kind": "dev",
    "methods": {},
    "version": 1
  },
  "userdoc": {
    "kind": "user",
    "methods": {},
    "version": 1
  }
}