{
  "contractName": "HealthRecord",
  "abi": [
    {
      "inputs": [],
      "stateMutability": "nonpayable",
      "type": "constructor"
    },
    {
      "anonymous": false,
      "inputs": [
        {
          "indexed": true,
          "internalType": "uint256",
          "name": "recordId",
          "type": "uint256"
        },
        {
          "indexed": true,
          "internalType": "address",
          "name": "doctorAddress",
          "type": "address"
        }
      ],
      "name": "AccessGranted",
      "type": "event"
    },
    {
      "anonymous": false,
      "inputs": [
        {
          "indexed": true,
          "internalType": "uint256",
          "name": "recordId",
          "type": "uint256"
        },
        {
          "indexed": true,
          "internalType": "address",
          "name": "doctorAddress",
          "type": "address"
        }
      ],
      "name": "AccessRevoked",
      "type": "event"
    },
    {
      "anonymous": false,
      "inputs": [
        {
          "indexed": true,
          "internalType": "address",
          "name": "doctorAddress",
          "type": "address"
        }
      ],
      "name": "DoctorAdded",
      "type": "event"
    },
    {
      "anonymous": false,
      "inputs": [
        {
          "indexed": true,
          "internalType": "address",
          "name": "doctorAddress",
          "type": "address"
        }
      ],
      "name": "DoctorRemoved",
      "type": "event"
    },
    {
      "anonymous": false,
      "inputs": [
        {
          "indexed": true,
          "internalType": "uint256",
          "name": "id",
          "type": "uint256"
        },
        {
          "indexed": true,
          "internalType": "address",
          "name": "patient",
          "type": "address"
        },
        {
          "indexed": false,
          "internalType": "string",
          "name": "ipfsCid",
          "type": "string"
        }
      ],
      "name": "RecordAdded",
      "type": "event"
    },
    {
      "inputs": [
        {
          "internalType": "uint256",
          "name": "",
          "type": "uint256"
        },
        {
          "internalType": "address",
          "name": "",
          "type": "address"
        }
      ],
      "name": "accessList",
      "outputs": [
        {
          "internalType": "bool",
          "name": "",
          "type": "bool"
        }
      ],
      "stateMutability": "view",
      "type": "function",
      "constant": true
    },
    {
      "inputs": [
        {
          "internalType": "address",
          "name": "",
          "type": "address"
        }
      ],
      "name": "isDoctor",
      "outputs": [
        {
          "internalType": "bool",
          "name": "",
          "type": "bool"
        }
      ],
      "stateMutability": "view",
      "type": "function",
      "constant": true
    },
    {
      "inputs": [],
      "name": "owner",
      "outputs": [
        {
          "internalType": "address",
          "name": "",
          "type": "address"
        }
      ],
      "stateMutability": "view",
      "type": "function",
      "constant": true
    },
    {
      "inputs": [
        {
          "internalType": "address",
          "name": "",
          "type": "address"
        },
        {
          "internalType": "uint256",
          "name": "",
          "type": "uint256"
        }
      ],
      "name": "patientRecords",
      "outputs": [
        {
          "internalType": "uint256",
          "name": "",
          "type": "uint256"
        }
      ],
      "stateMutability": "view",
      "type": "function",
      "constant": true
    },
    {
      "inputs": [],
      "name": "recordCounter",
      "outputs": [
        {
          "internalType": "uint256",
          "name": "",
          "type": "uint256"
        }
      ],
      "stateMutability": "view",
      "type": "function",
      "constant": true
    },
    {
      "inputs": [
        {
          "internalType": "uint256",
          "name": "",
          "type": "uint256"
        }
      ],
      "name": "records",
      "outputs": [
        {
          "internalType": "uint256",
          "name": "id",
          "type": "uint256"
        },
        {
          "internalType": "string",
          "name": "ipfsCid",
          "type": "string"
        },
        {
          "internalType": "string",
          "name": "fileName",
          "type": "string"
        },
        {
          "internalType": "address",
          "name": "patient",
          "type": "address"
        },
        {
          "internalType": "uint256",
          "name": "timestamp",
          "type": "uint256"
        }
      ],
      "stateMutability": "view",
      "type": "function",
      "constant": true
    },
    {
      "inputs": [
        {
          "internalType": "address",
          "name": "_doctorAddress",
          "type": "address"
        }
      ],
      "name": "addDoctor",
      "outputs": [],
      "stateMutability": "nonpayable",
      "type": "function"
    },
    {
      "inputs": [
        {
          "internalType": "address",
          "name": "_doctorAddress",
          "type": "address"
        }
      ],
      "name": "removeDoctor",
      "outputs": [],
      "stateMutability": "nonpayable",
      "type": "function"
    },
    {
      "inputs": [
        {
          "internalType": "string",
          "name": "_ipfsCid",
          "type": "string"
        },
        {
          "internalType": "string",
          "name": "_fileName",
          "type": "string"
        }
      ],
      "name": "addRecord",
      "outputs": [],
      "stateMutability": "nonpayable",
      "type": "function"
    },
    {
      "inputs": [
        {
          "internalType": "uint256",
          "name": "_recordId",
          "type": "uint256"
        },
        {
          "internalType": "address",
          "name": "_doctorAddress",
          "type": "address"
        }
      ],
      "name": "grantAccess",
      "outputs": [],
      "stateMutability": "nonpayable",
      "type": "function"
    },
    {
      "inputs": [
        {
          "internalType": "uint256",
          "name": "_recordId",
          "type": "uint256"
        },
        {
          "internalType": "address",
          "name": "_doctorAddress",
          "type": "address"
        }
      ],
      "name": "revokeAccess",
      "outputs": [],
      "stateMutability": "nonpayable",
      "type": "function"
    },
    {
      "inputs": [],
      "name": "getMyRecordIds",
      "outputs": [
        {
          "internalType": "uint256[]",
          "name": "",
          "type": "uint256[]"
        }
      ],
      "stateMutability": "view",
      "type": "function",
      "constant": true
    },
    {
      "inputs": [
        {
          "internalType": "uint256",
          "name": "_recordId",
          "type": "uint256"
        }
      ],
      "name": "getRecordById",
      "outputs": [
        {
          "components": [
            {
              "internalType": "uint256",
              "name": "id",
              "type": "uint256"
            },
            {
              "internalType": "string",
              "name": "ipfsCid",
              "type": "string"
            },
            {
              "internalType": "string",
              "name": "fileName",
              "type": "string"
            },
            {
              "internalType": "address",
              "name": "patient",
              "type": "address"
            },
            {
              "internalType": "uint256",
              "name": "timestamp",
              "type": "uint256"
            }
          ],
          "internalType": "struct HealthRecord.Record",
          "name": "",
          "type": "tuple"
        }
      ],
      "stateMutability": "view",
      "type": "function",
      "constant": true
    }
  ],
  "bytecode": "0x6080604052348015600f57600080fd5b50336000806101000a81548173ffffffffffffffffffffffffffffffffffffffff021916908373ffffffffffffffffffffffffffffffffffffffff160217905550611e988061005f6000396000f3fe608060405234801561001057600080fd5b50600436106100ec576000357c01000000000000000000000000000000000000000000000000000000009004806394f0df61116100a9578063c959624811610083578063c959624814610233578063d9a5ec1b1461024f578063de1dc8b51461026b578063e75b8b231461029b576100ec565b806394f0df61146101b757806398fc90e9146101e7578063996440c614610203576100ec565b806334461067146100f157806344c2f653146101255780634780468f1461014357806365dd152c1461015f5780637599be5d1461017b5780638da5cb5b14610199575b600080fd5b61010b60048036038101906101069190611167565b6102cb565b60405161011c959493929190611274565b60405180910390f35b61012d610431565b60405161013a9190611393565b60405180910390f35b61015d600480360381019061015891906113e1565b6104c6565b005b6101796004803603810190610174919061140e565b61067e565b005b61018361085f565b604051610190919061144e565b60405180910390f35b6101a1610865565b6040516101ae9190611469565b60405180910390f35b6101d160048036038101906101cc9190611484565b610889565b6040516101de919061144e565b60405180910390f35b61020160048036038101906101fc91906113e1565b6108ba565b005b61021d600480360381019061021891906113e1565b610a72565b60405161022a91906114df565b60405180910390f35b61024d6004803603810190610248919061162f565b610a92565b005b6102696004803603810190610264919061140e565b610c45565b005b6102856004803603810190610280919061140e565b610d9a565b60405161029291906114df565b60405180910390f35b6102b560048036038101906102b09190611167565b610dc9565b6040516102c2919061177d565b60405180910390f35b60036020528060005260406000206000915090508060000154908060010180546102f4906117ce565b80601f0160208091040260200160405190810160405280929190818152602001828054610320906117ce565b801561036d5780601f106103425761010080835404028352916020019161036d565b820191906000526020600020905b81548152906001019060200180831161035057829003601f168201915b505050505090806002018054610382906117ce565b80601f01602080910402602001604051908101604052809291908181526020018280546103ae906117ce565b80156103fb5780601f106103d0576101008083540402835291602001916103fb565b820191906000526020600020905b8154815290600101906020018083116103de57829003601f168201915b5050505050908060030160009054906101000a900473ffffffffffffffffffffffffffffffffffffffff16908060040154905085565b6060600460003373ffffffffffffffffffffffffffffffffffffffff1673ffffffffffffffffffffffffffffffffffffffff1681526020019081526020016000208054806020026020016040519081016040528092919081815260200182805480156104bc57602002820191906000526020600020905b8154815260200190600101908083116104a8575b5050505050905090565b60008054906101000a900473ffffffffffffffffffffffffffffffffffffffff1673ffffffffffffffffffffffffffffffffffffffff163373ffffffffffffffffffffffffffffffffffffffff1614610554576040517f08c379a000000000000000000000000000000000000000000000000000000000815260040161054b90611871565b60405180910390fd5b600160008273ffffffffffffffffffffffffffffffffffffffff1673ffffffffffffffffffffffffffffffffffffffff16815260200190815260200160002060009054906101000a900460ff16156105e1576040517f08c379a00000000000000000000000000000000000000000000000000000000081526004016105d890611903565b60405180910390fd5b60018060008373ffffffffffffffffffffffffffffffffffffffff1673ffffffffffffffffffffffffffffffffffffffff16815260200190815260200160002060006101000a81548160ff0219169083151502179055508073ffffffffffffffffffffffffffffffffffffffff167f69908b2e63170aa89ef89719bbe3b4c92cccc38653968ab25f4464eff7c28ac860405160405180910390a250565b3373ffffffffffffffffffffffffffffffffffffffff166003600084815260200190815260200160002060030160009054906101000a900473ffffffffffffffffffffffffffffffffffffffff1673ffffffffffffffffffffffffffffffffffffffff1614610722576040517f08c379a000000000000000000000000000000000000000000000000000000000815260040161071990611995565b60405180910390fd5b600160008273ffffffffffffffffffffffffffffffffffffffff1673ffffffffffffffffffffffffffffffffffffffff16815260200190815260200160002060009054906101000a900460ff166107ae576040517f08c379a00000000000000000000000000000000000000000000000000000000081526004016107a590611a27565b60405180910390fd5b60016005600084815260200190815260200160002060008373ffffffffffffffffffffffffffffffffffffffff1673ffffffffffffffffffffffffffffffffffffffff16815260200190815260200160002060006101000a81548160ff0219169083151502179055508073ffffffffffffffffffffffffffffffffffffffff16827f3c3a9147a1fc73dd51a32f4d10c43d457e8cb826eb6f35cac6349eb965ba82b460405160405180910390a35050565b60025481565b60008054906101000a900473ffffffffffffffffffffffffffffffffffffffff1681565b600460205281600052604060002081815481106108a557600080fd5b90600052602060002001600091509150505481565b60008054906101000a900473ffffffffffffffffffffffffffffffffffffffff1673ffffffffffffffffffffffffffffffffffffffff163373ffffffffffffffffffffffffffffffffffffffff1614610948576040517f08c379a000000000000000000000000000000000000000000000000000000000815260040161093f90611871565b60405180910390fd5b600160008273ffffffffffffffffffffffffffffffffffffffff1673ffffffffffffffffffffffffffffffffffffffff16815260200190815260200160002060009054906101000a900460ff166109d4576040517f08c379a00000000000000000000000000000000000000000000000000000000081526004016109cb90611a27565b60405180910390fd5b6000600160008373ffffffffffffffffffffffffffffffffffffffff1673ffffffffffffffffffffffffffffffffffffffff16815260200190815260200160002060006101000a81548160ff0219169083151502179055508073ffffffffffffffffffffffffffffffffffffffff167f493d7cf6a7c880406a55654d6727464ea088bd01d40498e1987a327e68961ab860405160405180910390a250565b60016020528060005260406000206000915054906101000a900460ff1681565b60026000815480929190610aa590611a76565b9190505550600060025490506040518060a001604052808281526020018481526020018381526020013373ffffffffffffffffffffffffffffffffffffffff1681526020014281525060036000838152602001908152602001600020600082015181600001556020820151816001019081610b209190611c70565b506040820151816002019081610b369190611c70565b5060608201518160030160006101000a81548173ffffffffffffffffffffffffffffffffffffffff021916908373ffffffffffffffffffffffffffffffffffffffff16021790555060808201518160040155905050600460003373ffffffffffffffffffffffffffffffffffffffff1673ffffffffffffffffffffffffffffffffffffffff1681526020019081526020016000208190806001815401808255809150506001900390600052602060002001600090919091909150553373ffffffffffffffffffffffffffffffffffffffff16817f4f1eea90beb2ccd16be5b37fc1e1272af00b7e01520eff654685171f4bab636a85604051610c389190611d42565b60405180910390a3505050565b3373ffffffffffffffffffffffffffffffffffffffff166003600084815260200190815260200160002060030160009054906101000a900473ffffffffffffffffffffffffffffffffffffffff1673ffffffffffffffffffffffffffffffffffffffff1614610ce9576040517f08c379a0000000000000000000000000000000000000000000000000000000008152600401610ce090611995565b60405180910390fd5b60006005600084815260200190815260200160002060008373ffffffffffffffffffffffffffffffffffffffff1673ffffffffffffffffffffffffffffffffffffffff16815260200190815260200160002060006101000a81548160ff0219169083151502179055508073ffffffffffffffffffffffffffffffffffffffff16827f125883b94692baebecad9f111ed97ffa626523bbbadc6b0ef85ee1b56b9e52d560405160405180910390a35050565b60056020528160005260406000206020528060005260406000206000915091509054906101000a900460ff1681565b610dd16110d8565b600082118015610de357506002548211155b610e22576040517f08c379a0000000000000000000000000000000000000000000000000000000008152600401610e1990611db0565b60405180910390fd5b600060036000848152602001908152602001600020905060008160030160009054906101000a900473ffffffffffffffffffffffffffffffffffffffff1673ffffffffffffffffffffffffffffffffffffffff163373ffffffffffffffffffffffffffffffffffffffff161480610ef357506005600085815260200190815260200160002060003373ffffffffffffffffffffffffffffffffffffffff1673ffffffffffffffffffffffffffffffffffffffff16815260200190815260200160002060009054906101000a900460ff165b905080610f35576040517f08c379a0000000000000000000000000000000000000000000000000000000008152600401610f2c90611e42565b60405180910390fd5b816040518060a001604052908160008201548152602001600182018054610f5b906117ce565b80601f0160208091040260200160405190810160405280929190818152602001828054610f87906117ce565b8015610fd45780601f10610fa957610100808354040283529160200191610fd4565b820191906000526020600020905b815481529060010190602001808311610fb757829003601f168201915b50505050508152602001600282018054610fed906117ce565b80601f0160208091040260200160405190810160405280929190818152602001828054611019906117ce565b80156110665780601f1061103b57610100808354040283529160200191611066565b820191906000526020600020905b81548152906001019060200180831161104957829003601f168201915b505050505081526020016003820160009054906101000a900473ffffffffffffffffffffffffffffffffffffffff1673ffffffffffffffffffffffffffffffffffffffff1673ffffffffffffffffffffffffffffffffffffffff16815260200160048201548152505092505050919050565b6040518060a00160405280600081526020016060815260200160608152602001600073ffffffffffffffffffffffffffffffffffffffff168152602001600081525090565b6000604051905090565b600080fd5b600080fd5b6000819050919050565b61114481611131565b811461114f57600080fd5b50565b6000813590506111618161113b565b92915050565b60006020828403121561117d5761117c611127565b5b600061118b84828501611152565b91505092915050565b61119d81611131565b82525050565b600081519050919050565b600082825260208201905092915050565b60005b838110156111dd5780820151818401526020810190506111c2565b60008484015250505050565b6000601f19601f8301169050919050565b6000611205826111a3565b61120f81856111ae565b935061121f8185602086016111bf565b611228816111e9565b840191505092915050565b600073ffffffffffffffffffffffffffffffffffffffff82169050919050565b600061125e82611233565b9050919050565b61126e81611253565b82525050565b600060a0820190506112896000830188611194565b818103602083015261129b81876111fa565b905081810360408301526112af81866111fa565b90506112be6060830185611265565b6112cb6080830184611194565b9695505050505050565b600081519050919050565b600082825260208201905092915050565b6000819050602082019050919050565b61130a81611131565b82525050565b600061131c8383611301565b60208301905092915050565b6000602082019050919050565b6000611340826112d5565b61134a81856112e0565b9350611355836112f1565b8060005b8381101561138657815161136d8882611310565b975061137883611328565b925050600181019050611359565b5085935050505092915050565b600060208201905081810360008301526113ad8184611335565b905092915050565b6113be81611253565b81146113c957600080fd5b50565b6000813590506113db816113b5565b92915050565b6000602082840312156113f7576113f6611127565b5b6000611405848285016113cc565b91505092915050565b6000806040838503121561142557611424611127565b5b600061143385828601611152565b9250506020611444858286016113cc565b9150509250929050565b60006020820190506114636000830184611194565b92915050565b600060208201905061147e6000830184611265565b92915050565b6000806040838503121561149b5761149a611127565b5b60006114a9858286016113cc565b92505060206114ba85828601611152565b9150509250929050565b60008115159050919050565b6114d9816114c4565b82525050565b60006020820190506114f460008301846114d0565b92915050565b600080fd5b600080fd5b7f4e487b7100000000000000000000000000000000000000000000000000000000600052604160045260246000fd5b61153c826111e9565b810181811067ffffffffffffffff8211171561155b5761155a611504565b5b80604052505050565b600061156e61111d565b905061157a8282611533565b919050565b600067ffffffffffffffff82111561159a57611599611504565b5b6115a3826111e9565b9050602081019050919050565b82818337600083830152505050565b60006115d26115cd8461157f565b611564565b9050828152602081018484840111156115ee576115ed6114ff565b5b6115f98482856115b0565b509392505050565b600082601f830112611616576116156114fa565b5b81356116268482602086016115bf565b91505092915050565b6000806040838503121561164657611645611127565b5b600083013567ffffffffffffffff8111156116645761166361112c565b5b61167085828601611601565b925050602083013567ffffffffffffffff8111156116915761169061112c565b5b61169d85828601611601565b9150509250929050565b600082825260208201905092915050565b60006116c3826111a3565b6116cd81856116a7565b93506116dd8185602086016111bf565b6116e6816111e9565b840191505092915050565b6116fa81611253565b82525050565b600060a0830160008301516117186000860182611301565b506020830151848203602086015261173082826116b8565b9150506040830151848203604086015261174a82826116b8565b915050606083015161175f60608601826116f1565b5060808301516117726080860182611301565b508091505092915050565b600060208201905081810360008301526117978184611700565b905092915050565b7f4e487b7100000000000000000000000000000000000000000000000000000000600052602260045260246000fd5b600060028204905060018216806117e657607f821691505b6020821081036117f9576117f861179f565b5b50919050565b7f4f6e6c792074686520636f6e7472616374206f776e65722063616e207065726660008201527f6f726d207468697320616374696f6e2e00000000000000000000000000000000602082015250565b600061185b6030836111ae565b9150611866826117ff565b604082019050919050565b6000602082019050818103600083015261188a8161184e565b9050919050565b7f54686973206164647265737320697320616c726561647920726567697374657260008201527f6564206173206120646f63746f722e0000000000000000000000000000000000602082015250565b60006118ed602f836111ae565b91506118f882611891565b604082019050919050565b6000602082019050818103600083015261191c816118e0565b9050919050565b7f596f7520617265206e6f7420746865206f776e6572206f66207468697320726560008201527f636f72642e000000000000000000000000000000000000000000000000000000602082015250565b600061197f6025836111ae565b915061198a82611923565b604082019050919050565b600060208201905081810360008301526119ae81611972565b9050919050565b7f546869732061646472657373206973206e6f742061207265676973746572656460008201527f20646f63746f722e000000000000000000000000000000000000000000000000602082015250565b6000611a116028836111ae565b9150611a1c826119b5565b604082019050919050565b60006020820190508181036000830152611a4081611a04565b9050919050565b7f4e487b7100000000000000000000000000000000000000000000000000000000600052601160045260246000fd5b6000611a8182611131565b91507fffffffffffffffffffffffffffffffffffffffffffffffffffffffffffffffff8203611ab357611ab2611a47565b5b600182019050919050565b60008190508160005260206000209050919050565b60006020601f8301049050919050565b60008160020a8302905092915050565b600060088302611b237fffffffffffffffffffffffffffffffffffffffffffffffffffffffffffffffff82611ae3565b611b2d8683611ae3565b95508019841693508086168417925050509392505050565b6000819050919050565b6000611b6a611b65611b6084611131565b611b45565b611131565b9050919050565b6000819050919050565b611b8483611b4f565b611b98611b9082611b71565b848454611af3565b825550505050565b600090565b611bad611ba0565b611bb8818484611b7b565b505050565b5b81811015611bdc57611bd1600082611ba5565b600181019050611bbe565b5050565b601f821115611c2157611bf281611abe565b611bfb84611ad3565b81016020851015611c0a578190505b611c1e611c1685611ad3565b830182611bbd565b50505b505050565b60008160020a8304905092915050565b6000611c4760001984600802611c26565b1980831691505092915050565b6000611c608383611c36565b9150826002028217905092915050565b611c79826111a3565b67ffffffffffffffff811115611c9257611c91611504565b5b611c9c82546117ce565b611ca7828285611be0565b600060209050601f831160018114611cda5760008415611cc8578287015190505b611cd28582611c54565b865550611d3a565b601f198416611ce886611abe565b60005b82811015611d1057848901518255600182019150602085019450602081019050611ceb565b86831015611d2d5784890151611d29601f891682611c36565b8355505b6001600288020188555050505b505050505050565b60006020820190508181036000830152611d5c81846111fa565b905092915050565b7f5265636f726420494420697320696e76616c69642e0000000000000000000000600082015250565b6000611d9a6015836111ae565b9150611da582611d64565b602082019050919050565b60006020820190508181036000830152611dc981611d8d565b9050919050565b7f596f7520646f206e6f742068617665207065726d697373696f6e20746f20766960008201527f65772074686973207265636f72642e0000000000000000000000000000000000602082015250565b6000611e2c602f836111ae565b9150611e3782611dd0565b604082019050919050565b60006020820190508181036000830152611e5b81611e1f565b905091905056fea26469706673582212208343782764b2843ad91e6d2604a2ed453f8c0299d79171bb9c949d3e10a5f0ed64736f6c634300081e0033",
  "immutableReferences": {},
  "source": "// SPDX-License-Identifier: MIT\r\npragma solidity ^0.8.0;\r\n\r\n/**\r\n * @title HealthRecord\r\n * @dev This contract manages health records with role-based access control\r\n * for Patients and Doctors. It links a user to their health data stored on IPFS.\r\n */\r\ncontract HealthRecord {\r\n\r\n    // --- State Variables ---\r\n\r\n    address public owner; // The address of the contract deployer (admin)\r\n\r\n    // A structure to hold the metadata for each health record.\r\n    struct Record {\r\n        uint id;\r\n        string ipfsCid;\r\n        string fileName;\r\n        address patient; // Renamed from owner for clarity\r\n        uint timestamp;\r\n    }\r\n\r\n    // Role management\r\n    mapping(address => bool) public isDoctor;\r\n\r\n    // Data storage\r\n    uint public recordCounter;\r\n    mapping(uint => Record) public records;\r\n    mapping(address => uint[]) public patientRecords; // Maps a patient's address to their record IDs\r\n\r\n    // Access control: Maps a record ID to a mapping of doctor addresses who have access\r\n    mapping(uint => mapping(address => bool)) public accessList;\r\n\r\n    // --- Events ---\r\n\r\n    event RecordAdded(\r\n        uint indexed id,\r\n        address indexed patient,\r\n        string ipfsCid\r\n    );\r\n    \r\n    event DoctorAdded(address indexed doctorAddress);\r\n    event DoctorRemoved(address indexed doctorAddress);\r\n    event AccessGranted(uint indexed recordId, address indexed doctorAddress);\r\n    event AccessRevoked(uint indexed recordId, address indexed doctorAddress);\r\n\r\n    // --- Modifiers ---\r\n\r\n    modifier onlyOwner() {\r\n        require(msg.sender == owner, \"Only the contract owner can perform this action.\");\r\n        _;\r\n    }\r\n\r\n    modifier onlyDoctor() {\r\n        require(isDoctor[msg.sender], \"Only a registered doctor can perform this action.\");\r\n        _;\r\n    }\r\n\r\n    // --- Constructor ---\r\n\r\n    constructor() {\r\n        owner = msg.sender; // The person who deploys the contract is the owner\r\n    }\r\n\r\n    // --- Role Management Functions (Admin only) ---\r\n\r\n    /**\r\n     * @dev Adds a new doctor to the system. Can only be called by the owner.\r\n     * @param _doctorAddress The wallet address of the doctor to add.\r\n     */\r\n    function addDoctor(address _doctorAddress) public onlyOwner {\r\n        require(!isDoctor[_doctorAddress], \"This address is already registered as a doctor.\");\r\n        isDoctor[_doctorAddress] = true;\r\n        emit DoctorAdded(_doctorAddress);\r\n    }\r\n\r\n    /**\r\n     * @dev Removes a doctor from the system. Can only be called by the owner.\r\n     * @param _doctorAddress The wallet address of the doctor to remove.\r\n     */\r\n    function removeDoctor(address _doctorAddress) public onlyOwner {\r\n        require(isDoctor[_doctorAddress], \"This address is not a registered doctor.\");\r\n        isDoctor[_doctorAddress] = false;\r\n        emit DoctorRemoved(_doctorAddress);\r\n    }\r\n\r\n\r\n    // --- Patient Functions ---\r\n\r\n    /**\r\n     * @dev Adds a new health record. Can only be called by a patient.\r\n     * @param _ipfsCid The IPFS Content ID for the data file.\r\n     * @param _fileName The name of the file for easy identification.\r\n     */\r\n    function addRecord(string memory _ipfsCid, string memory _fileName) public {\r\n        recordCounter++;\r\n        uint newRecordId = recordCounter;\r\n\r\n        records[newRecordId] = Record({\r\n            id: newRecordId,\r\n            ipfsCid: _ipfsCid,\r\n            fileName: _fileName,\r\n            patient: msg.sender,\r\n            timestamp: block.timestamp\r\n        });\r\n\r\n        patientRecords[msg.sender].push(newRecordId);\r\n        emit RecordAdded(newRecordId, msg.sender, _ipfsCid);\r\n    }\r\n\r\n    /**\r\n     * @dev Grants a doctor access to one of the patient's records.\r\n     * @param _recordId The ID of the record to grant access to.\r\n     * @param _doctorAddress The address of the doctor being granted access.\r\n     */\r\n    function grantAccess(uint _recordId, address _doctorAddress) public {\r\n        require(records[_recordId].patient == msg.sender, \"You are not the owner of this record.\");\r\n        require(isDoctor[_doctorAddress], \"This address is not a registered doctor.\");\r\n        \r\n        accessList[_recordId][_doctorAddress] = true;\r\n        emit AccessGranted(_recordId, _doctorAddress);\r\n    }\r\n\r\n    /**\r\n     * @dev Revokes a doctor's access to one of the patient's records.\r\n     * @param _recordId The ID of the record to revoke access from.\r\n     * @param _doctorAddress The address of the doctor whose access is being revoked.\r\n     */\r\n    function revokeAccess(uint _recordId, address _doctorAddress) public {\r\n        require(records[_recordId].patient == msg.sender, \"You are not the owner of this record.\");\r\n        \r\n        accessList[_recordId][_doctorAddress] = false;\r\n        emit AccessRevoked(_recordId, _doctorAddress);\r\n    }\r\n\r\n\r\n    // --- View Functions (for Patients and Doctors) ---\r\n\r\n    /**\r\n     * @dev Retrieves all record IDs associated with the calling patient.\r\n     * @return A dynamic array of uints representing the record IDs.\r\n     */\r\n    function getMyRecordIds() public view returns (uint[] memory) {\r\n        return patientRecords[msg.sender];\r\n    }\r\n    \r\n    /**\r\n     * @dev Retrieves the details of a specific record.\r\n     * Access is restricted to the patient owner or an authorized doctor.\r\n     * @param _recordId The ID of the record to retrieve.\r\n     * @return The full Record struct.\r\n     */\r\n    function getRecordById(uint _recordId) public view returns (Record memory) {\r\n        require(_recordId > 0 && _recordId <= recordCounter, \"Record ID is invalid.\");\r\n        \r\n        Record storage recordToReturn = records[_recordId];\r\n        \r\n        bool hasAccess = (msg.sender == recordToReturn.patient) || (accessList[_recordId][msg.sender]);\r\n        require(hasAccess, \"You do not have permission to view this record.\");\r\n        \r\n        return recordToReturn;\r\n    }\r\n}\r\n",
  "sourcePath": "C:\\xampp\\htdocs\\ABHA 2.0\\abha\\contracts\\HealthRecord.sol",
  "compiler": {
    "name": "solc",
    "version": "0.8.30+commit.73712a01.Emscripten.clang"
  },
  "schemaVersion": "3.4.16",
  "updatedAt": "2025-07-30T17:14:28.675Z",
  "networkType": "ethereum",
  "devdoc": {
    "details": "This contract manages health records with role-based access control for Patients and Doctors. It links a user to their health data stored on IPFS.",
    "kind": "dev",
    "methods": {
      "addDoctor(address)": {
        "details": "Adds a new doctor to the system. Can only be called by the owner.",
        "params": {
          "_doctorAddress": "The wallet address of the doctor to add."
        }
      },
      "addRecord(string,string)": {
        "details": "Adds a new health record. Can only be called by a patient.",
        "params": {
          "_fileName": "The name of the file for easy identification.",
          "_ipfsCid": "The IPFS Content ID for the data file."
        }
      },
      "getMyRecordIds()": {
        "details": "Retrieves all record IDs associated with the calling patient.",
        "returns": {
          "_0": "A dynamic array of uints representing the record IDs."
        }
      },
      "getRecordById(uint256)": {
        "details": "Retrieves the details of a specific record. Access is restricted to the patient owner or an authorized doctor.",
        "params": {
          "_recordId": "The ID of the record to retrieve."
        },
        "returns": {
          "_0": "The full Record struct."
        }
      },
      "grantAccess(uint256,address)": {
        "details": "Grants a doctor access to one of the patient's records.",
        "params": {
          "_doctorAddress": "The address of the doctor being granted access.",
          "_recordId": "The ID of the record to grant access to."
        }
      },
      "removeDoctor(address)": {
        "details": "Removes a doctor from the system. Can only be called by the owner.",
        "params": {
          "_doctorAddress": "The wallet address of the doctor to remove."
        }
      },
      "revokeAccess(uint256,address)": {
        "details": "Revokes a doctor's access to one of the patient's records.",
        "params": {
          "_doctorAddress": "The address of the doctor whose access is being revoked.",
          "_recordId": "The ID of the record to revoke access from."
        }
      }
    },
    "title": "HealthRecord",
    "version": 1
  },
  "userdoc": {
    "kind": "user",
    "methods": {},
    "version": 1
  }
}