{
  "contractName": "HealthRecord",
  "abi": [
    {
      "inputs": [],
      "stateMutability": "nonpayable",
      "type": "constructor"
    },
    {
      "anonymous": false,
      "inputs": [
        {
          "indexed": true,
          "internalType": "uint256",
          "name": "recordId",
          "type": "uint256"
        },
        {
          "indexed": true,
          "internalType": "address",
          "name": "doctorAddress",
          "type": "address"
        }
      ],
      "name": "AccessGranted",
      "type": "event"
    },
    {
      "anonymous": false,
      "inputs": [
        {
          "indexed": true,
          "internalType": "uint256",
          "name": "recordId",
          "type": "uint256"
        },
        {
          "indexed": true,
          "internalType": "address",
          "name": "doctorAddress",
          "type": "address"
        }
      ],
      "name": "AccessRevoked",
      "type": "event"
    },
    {
      "anonymous": false,
      "inputs": [
        {
          "indexed": true,
          "internalType": "address",
          "name": "patient",
          "type": "address"
        },
        {
          "indexed": true,
          "internalType": "address",
          "name": "doctor",
          "type": "address"
        }
      ],
      "name": "ConsentGranted",
      "type": "event"
    },
    {
      "anonymous": false,
      "inputs": [
        {
          "indexed": true,
          "internalType": "address",
          "name": "patient",
          "type": "address"
        },
        {
          "indexed": true,
          "internalType": "address",
          "name": "doctor",
          "type": "address"
        }
      ],
      "name": "ConsentRevoked",
      "type": "event"
    },
    {
      "anonymous": false,
      "inputs": [
        {
          "indexed": true,
          "internalType": "address",
          "name": "doctorAddress",
          "type": "address"
        },
        {
          "indexed": false,
          "internalType": "string",
          "name": "specialization",
          "type": "string"
        }
      ],
      "name": "DoctorAdded",
      "type": "event"
    },
    {
      "anonymous": false,
      "inputs": [
        {
          "indexed": true,
          "internalType": "address",
          "name": "doctorAddress",
          "type": "address"
        }
      ],
      "name": "DoctorRemoved",
      "type": "event"
    },
    {
      "anonymous": false,
      "inputs": [
        {
          "indexed": true,
          "internalType": "uint256",
          "name": "pId",
          "type": "uint256"
        },
        {
          "indexed": true,
          "internalType": "address",
          "name": "wallet",
          "type": "address"
        },
        {
          "indexed": false,
          "internalType": "string",
          "name": "name",
          "type": "string"
        },
        {
          "indexed": false,
          "internalType": "string",
          "name": "labName",
          "type": "string"
        },
        {
          "indexed": false,
          "internalType": "string",
          "name": "labLocation",
          "type": "string"
        }
      ],
      "name": "PatientRegistered",
      "type": "event"
    },
    {
      "anonymous": false,
      "inputs": [
        {
          "indexed": true,
          "internalType": "uint256",
          "name": "recordId",
          "type": "uint256"
        },
        {
          "indexed": true,
          "internalType": "address",
          "name": "grantee",
          "type": "address"
        },
        {
          "indexed": false,
          "internalType": "enum HealthRecord.Permission",
          "name": "permission",
          "type": "uint8"
        }
      ],
      "name": "PermissionSet",
      "type": "event"
    },
    {
      "anonymous": false,
      "inputs": [
        {
          "indexed": true,
          "internalType": "uint256",
          "name": "id",
          "type": "uint256"
        },
        {
          "indexed": true,
          "internalType": "address",
          "name": "patient",
          "type": "address"
        },
        {
          "indexed": true,
          "internalType": "address",
          "name": "doctor",
          "type": "address"
        },
        {
          "indexed": false,
          "internalType": "string",
          "name": "imageCID",
          "type": "string"
        },
        {
          "indexed": false,
          "internalType": "string",
          "name": "diagnosis",
          "type": "string"
        }
      ],
      "name": "RecordAdded",
      "type": "event"
    },
    {
      "anonymous": false,
      "inputs": [
        {
          "indexed": true,
          "internalType": "uint256",
          "name": "id",
          "type": "uint256"
        },
        {
          "indexed": true,
          "internalType": "address",
          "name": "updater",
          "type": "address"
        }
      ],
      "name": "RecordUpdated",
      "type": "event"
    },
    {
      "inputs": [
        {
          "internalType": "uint256",
          "name": "",
          "type": "uint256"
        },
        {
          "internalType": "address",
          "name": "",
          "type": "address"
        }
      ],
      "name": "accessControlList",
      "outputs": [
        {
          "internalType": "enum HealthRecord.Permission",
          "name": "",
          "type": "uint8"
        }
      ],
      "stateMutability": "view",
      "type": "function"
    },
    {
      "inputs": [
        {
          "internalType": "address",
          "name": "",
          "type": "address"
        }
      ],
      "name": "isDoctor",
      "outputs": [
        {
          "internalType": "bool",
          "name": "",
          "type": "bool"
        }
      ],
      "stateMutability": "view",
      "type": "function"
    },
    {
      "inputs": [
        {
          "internalType": "address",
          "name": "",
          "type": "address"
        }
      ],
      "name": "isPatient",
      "outputs": [
        {
          "internalType": "bool",
          "name": "",
          "type": "bool"
        }
      ],
      "stateMutability": "view",
      "type": "function"
    },
    {
      "inputs": [],
      "name": "owner",
      "outputs": [
        {
          "internalType": "address",
          "name": "",
          "type": "address"
        }
      ],
      "stateMutability": "view",
      "type": "function"
    },
    {
      "inputs": [
        {
          "internalType": "uint256",
          "name": "",
          "type": "uint256"
        }
      ],
      "name": "pIdToAddress",
      "outputs": [
        {
          "internalType": "address",
          "name": "",
          "type": "address"
        }
      ],
      "stateMutability": "view",
      "type": "function"
    },
    {
      "inputs": [],
      "name": "patientCounter",
      "outputs": [
        {
          "internalType": "uint256",
          "name": "",
          "type": "uint256"
        }
      ],
      "stateMutability": "view",
      "type": "function"
    },
    {
      "inputs": [
        {
          "internalType": "address",
          "name": "",
          "type": "address"
        },
        {
          "internalType": "uint256",
          "name": "",
          "type": "uint256"
        }
      ],
      "name": "patientRecords",
      "outputs": [
        {
          "internalType": "uint256",
          "name": "",
          "type": "uint256"
        }
      ],
      "stateMutability": "view",
      "type": "function"
    },
    {
      "inputs": [],
      "name": "recordCounter",
      "outputs": [
        {
          "internalType": "uint256",
          "name": "",
          "type": "uint256"
        }
      ],
      "stateMutability": "view",
      "type": "function"
    },
    {
      "inputs": [
        {
          "internalType": "uint256",
          "name": "",
          "type": "uint256"
        }
      ],
      "name": "records",
      "outputs": [
        {
          "internalType": "uint256",
          "name": "id",
          "type": "uint256"
        },
        {
          "internalType": "address",
          "name": "patient",
          "type": "address"
        },
        {
          "internalType": "address",
          "name": "doctor",
          "type": "address"
        },
        {
          "internalType": "string",
          "name": "imageCID",
          "type": "string"
        },
        {
          "internalType": "string",
          "name": "fileName",
          "type": "string"
        },
        {
          "internalType": "bytes32",
          "name": "reportHash",
          "type": "bytes32"
        },
        {
          "internalType": "string",
          "name": "diagnosis",
          "type": "string"
        },
        {
          "internalType": "bytes32",
          "name": "treatmentPlanHash",
          "type": "bytes32"
        },
        {
          "internalType": "uint256",
          "name": "followUpDate",
          "type": "uint256"
        },
        {
          "internalType": "uint8",
          "name": "aiConfidence",
          "type": "uint8"
        },
        {
          "internalType": "string",
          "name": "aiModelVersion",
          "type": "string"
        },
        {
          "internalType": "string",
          "name": "aiRemarks",
          "type": "string"
        },
        {
          "internalType": "enum HealthRecord.ReviewStatus",
          "name": "reviewStatus",
          "type": "uint8"
        },
        {
          "internalType": "enum HealthRecord.ConsentStatus",
          "name": "consentStatus",
          "type": "uint8"
        },
        {
          "internalType": "bool",
          "name": "emergencyAccessFlag",
          "type": "bool"
        },
        {
          "internalType": "uint256",
          "name": "createdAt",
          "type": "uint256"
        },
        {
          "internalType": "uint256",
          "name": "updatedAt",
          "type": "uint256"
        },
        {
          "internalType": "uint8",
          "name": "verifiedByMask",
          "type": "uint8"
        },
        {
          "internalType": "bytes32",
          "name": "transactionHash",
          "type": "bytes32"
        }
      ],
      "stateMutability": "view",
      "type": "function"
    },
    {
      "inputs": [
        {
          "internalType": "address",
          "name": "_doctorAddress",
          "type": "address"
        },
        {
          "internalType": "string",
          "name": "_specialization",
          "type": "string"
        }
      ],
      "name": "addDoctor",
      "outputs": [],
      "stateMutability": "nonpayable",
      "type": "function"
    },
    {
      "inputs": [
        {
          "internalType": "address",
          "name": "_doctorAddress",
          "type": "address"
        }
      ],
      "name": "removeDoctor",
      "outputs": [],
      "stateMutability": "nonpayable",
      "type": "function"
    },
    {
      "inputs": [
        {
          "internalType": "string",
          "name": "_specialization",
          "type": "string"
        }
      ],
      "name": "updateDoctorSpecialization",
      "outputs": [],
      "stateMutability": "nonpayable",
      "type": "function"
    },
    {
      "inputs": [
        {
          "internalType": "address",
          "name": "_doctor",
          "type": "address"
        }
      ],
      "name": "getDoctor",
      "outputs": [
        {
          "internalType": "string",
          "name": "specialization",
          "type": "string"
        },
        {
          "internalType": "bool",
          "name": "registered",
          "type": "bool"
        }
      ],
      "stateMutability": "view",
      "type": "function"
    },
    {
      "inputs": [
        {
          "internalType": "string",
          "name": "_name",
          "type": "string"
        },
        {
          "internalType": "string",
          "name": "_labName",
          "type": "string"
        },
        {
          "internalType": "string",
          "name": "_labLocation",
          "type": "string"
        },
        {
          "internalType": "bytes32",
          "name": "_patientID",
          "type": "bytes32"
        },
        {
          "internalType": "bytes32",
          "name": "_dobHash",
          "type": "bytes32"
        }
      ],
      "name": "registerPatient",
      "outputs": [],
      "stateMutability": "nonpayable",
      "type": "function"
    },
    {
      "inputs": [
        {
          "internalType": "address",
          "name": "_wallet",
          "type": "address"
        }
      ],
      "name": "getPatient",
      "outputs": [
        {
          "internalType": "uint256",
          "name": "pId",
          "type": "uint256"
        },
        {
          "internalType": "string",
          "name": "name",
          "type": "string"
        },
        {
          "internalType": "string",
          "name": "labName",
          "type": "string"
        },
        {
          "internalType": "string",
          "name": "labLocation",
          "type": "string"
        },
        {
          "internalType": "bytes32",
          "name": "patientID",
          "type": "bytes32"
        },
        {
          "internalType": "bytes32",
          "name": "dobHash",
          "type": "bytes32"
        },
        {
          "internalType": "uint256",
          "name": "recordCount",
          "type": "uint256"
        }
      ],
      "stateMutability": "view",
      "type": "function"
    },
    {
      "inputs": [
        {
          "internalType": "address",
          "name": "_doctor",
          "type": "address"
        }
      ],
      "name": "grantDoctorConsent",
      "outputs": [],
      "stateMutability": "nonpayable",
      "type": "function"
    },
    {
      "inputs": [
        {
          "internalType": "address",
          "name": "_doctor",
          "type": "address"
        }
      ],
      "name": "revokeDoctorConsent",
      "outputs": [],
      "stateMutability": "nonpayable",
      "type": "function"
    },
    {
      "inputs": [
        {
          "internalType": "address",
          "name": "_doctor",
          "type": "address"
        },
        {
          "internalType": "address",
          "name": "_patient",
          "type": "address"
        }
      ],
      "name": "isDoctorApprovedForPatient",
      "outputs": [
        {
          "internalType": "bool",
          "name": "",
          "type": "bool"
        }
      ],
      "stateMutability": "view",
      "type": "function"
    },
    {
      "inputs": [
        {
          "internalType": "string",
          "name": "_imageCID",
          "type": "string"
        },
        {
          "internalType": "string",
          "name": "_fileName",
          "type": "string"
        }
      ],
      "name": "addRecord",
      "outputs": [],
      "stateMutability": "nonpayable",
      "type": "function"
    },
    {
      "inputs": [
        {
          "internalType": "address",
          "name": "_patient",
          "type": "address"
        },
        {
          "internalType": "string",
          "name": "_imageCID",
          "type": "string"
        },
        {
          "components": [
            {
              "internalType": "string",
              "name": "fileName",
              "type": "string"
            },
            {
              "internalType": "string",
              "name": "diagnosis",
              "type": "string"
            },
            {
              "internalType": "bytes32",
              "name": "treatmentPlanHash",
              "type": "bytes32"
            },
            {
              "internalType": "uint256",
              "name": "followUpDate",
              "type": "uint256"
            },
            {
              "internalType": "bytes32",
              "name": "reportHash",
              "type": "bytes32"
            },
            {
              "internalType": "uint8",
              "name": "aiConfidence",
              "type": "uint8"
            },
            {
              "internalType": "string",
              "name": "aiModelVersion",
              "type": "string"
            },
            {
              "internalType": "string",
              "name": "aiRemarks",
              "type": "string"
            },
            {
              "internalType": "enum HealthRecord.ReviewStatus",
              "name": "reviewStatus",
              "type": "uint8"
            },
            {
              "internalType": "enum HealthRecord.ConsentStatus",
              "name": "consentStatus",
              "type": "uint8"
            },
            {
              "internalType": "bool",
              "name": "emergencyAccess",
              "type": "bool"
            },
            {
              "internalType": "bytes32",
              "name": "txHash",
              "type": "bytes32"
            }
          ],
          "internalType": "struct HealthRecord.RecordInput",
          "name": "input",
          "type": "tuple"
        }
      ],
      "name": "addRecordExtended",
      "outputs": [],
      "stateMutability": "nonpayable",
      "type": "function"
    },
    {
      "inputs": [
        {
          "internalType": "uint256",
          "name": "_recordId",
          "type": "uint256"
        },
        {
          "components": [
            {
              "internalType": "string",
              "name": "diagnosis",
              "type": "string"
            },
            {
              "internalType": "bytes32",
              "name": "treatmentPlanHash",
              "type": "bytes32"
            },
            {
              "internalType": "uint256",
              "name": "followUpDate",
              "type": "uint256"
            },
            {
              "internalType": "bytes32",
              "name": "reportHash",
              "type": "bytes32"
            },
            {
              "internalType": "uint8",
              "name": "aiConfidence",
              "type": "uint8"
            },
            {
              "internalType": "string",
              "name": "aiModelVersion",
              "type": "string"
            },
            {
              "internalType": "string",
              "name": "aiRemarks",
              "type": "string"
            },
            {
              "internalType": "enum HealthRecord.ReviewStatus",
              "name": "reviewStatus",
              "type": "uint8"
            },
            {
              "internalType": "enum HealthRecord.ConsentStatus",
              "name": "consentStatus",
              "type": "uint8"
            },
            {
              "internalType": "uint8",
              "name": "verifiedByMask",
              "type": "uint8"
            },
            {
              "internalType": "bool",
              "name": "emergencyAccess",
              "type": "bool"
            }
          ],
          "internalType": "struct HealthRecord.UpdateInput",
          "name": "u",
          "type": "tuple"
        }
      ],
      "name": "updateRecord",
      "outputs": [],
      "stateMutability": "nonpayable",
      "type": "function"
    },
    {
      "inputs": [
        {
          "internalType": "uint256",
          "name": "_recordId",
          "type": "uint256"
        },
        {
          "internalType": "address",
          "name": "_doctorAddress",
          "type": "address"
        }
      ],
      "name": "grantAccess",
      "outputs": [],
      "stateMutability": "nonpayable",
      "type": "function"
    },
    {
      "inputs": [
        {
          "internalType": "uint256",
          "name": "_recordId",
          "type": "uint256"
        },
        {
          "internalType": "address",
          "name": "_doctorAddress",
          "type": "address"
        }
      ],
      "name": "revokeAccess",
      "outputs": [],
      "stateMutability": "nonpayable",
      "type": "function"
    },
    {
      "inputs": [
        {
          "internalType": "uint256",
          "name": "_recordId",
          "type": "uint256"
        },
        {
          "internalType": "bytes32",
          "name": "_txHash",
          "type": "bytes32"
        }
      ],
      "name": "setRecordTransactionHash",
      "outputs": [],
      "stateMutability": "nonpayable",
      "type": "function"
    },
    {
      "inputs": [
        {
          "internalType": "uint256",
          "name": "_recordId",
          "type": "uint256"
        },
        {
          "internalType": "address",
          "name": "_grantee",
          "type": "address"
        },
        {
          "internalType": "enum HealthRecord.Permission",
          "name": "_perm",
          "type": "uint8"
        }
      ],
      "name": "setRecordPermission",
      "outputs": [],
      "stateMutability": "nonpayable",
      "type": "function"
    },
    {
      "inputs": [],
      "name": "getMyRecordIds",
      "outputs": [
        {
          "internalType": "uint256[]",
          "name": "",
          "type": "uint256[]"
        }
      ],
      "stateMutability": "view",
      "type": "function"
    },
    {
      "inputs": [
        {
          "internalType": "uint256",
          "name": "_recordId",
          "type": "uint256"
        }
      ],
      "name": "getRecordById",
      "outputs": [
        {
          "components": [
            {
              "internalType": "uint256",
              "name": "id",
              "type": "uint256"
            },
            {
              "internalType": "address",
              "name": "patient",
              "type": "address"
            },
            {
              "internalType": "address",
              "name": "doctor",
              "type": "address"
            },
            {
              "internalType": "string",
              "name": "imageCID",
              "type": "string"
            },
            {
              "internalType": "string",
              "name": "fileName",
              "type": "string"
            },
            {
              "internalType": "bytes32",
              "name": "reportHash",
              "type": "bytes32"
            },
            {
              "internalType": "string",
              "name": "diagnosis",
              "type": "string"
            },
            {
              "internalType": "bytes32",
              "name": "treatmentPlanHash",
              "type": "bytes32"
            },
            {
              "internalType": "uint256",
              "name": "followUpDate",
              "type": "uint256"
            },
            {
              "internalType": "uint8",
              "name": "aiConfidence",
              "type": "uint8"
            },
            {
              "internalType": "string",
              "name": "aiModelVersion",
              "type": "string"
            },
            {
              "internalType": "string",
              "name": "aiRemarks",
              "type": "string"
            },
            {
              "internalType": "enum HealthRecord.ReviewStatus",
              "name": "reviewStatus",
              "type": "uint8"
            },
            {
              "internalType": "enum HealthRecord.ConsentStatus",
              "name": "consentStatus",
              "type": "uint8"
            },
            {
              "internalType": "bool",
              "name": "emergencyAccessFlag",
              "type": "bool"
            },
            {
              "internalType": "uint256",
              "name": "createdAt",
              "type": "uint256"
            },
            {
              "internalType": "uint256",
              "name": "updatedAt",
              "type": "uint256"
            },
            {
              "internalType": "uint8",
              "name": "verifiedByMask",
              "type": "uint8"
            },
            {
              "internalType": "bytes32",
              "name": "transactionHash",
              "type": "bytes32"
            }
          ],
          "internalType": "struct HealthRecord.Record",
          "name": "",
          "type": "tuple"
        }
      ],
      "stateMutability": "view",
      "type": "function"
    },
    {
      "inputs": [
        {
          "internalType": "uint256",
          "name": "_recordId",
          "type": "uint256"
        }
      ],
      "name": "getRecordSummary",
      "outputs": [
        {
          "internalType": "uint256",
          "name": "recordID",
          "type": "uint256"
        },
        {
          "internalType": "address",
          "name": "patientAddress",
          "type": "address"
        },
        {
          "internalType": "address",
          "name": "doctorAddress",
          "type": "address"
        },
        {
          "internalType": "string",
          "name": "diagnosis",
          "type": "string"
        },
        {
          "internalType": "uint8",
          "name": "aiConfidence",
          "type": "uint8"
        },
        {
          "internalType": "bytes32",
          "name": "reportHash",
          "type": "bytes32"
        },
        {
          "internalType": "uint256",
          "name": "timestamp",
          "type": "uint256"
        },
        {
          "internalType": "enum HealthRecord.ConsentStatus",
          "name": "consentStatus",
          "type": "uint8"
        }
      ],
      "stateMutability": "view",
      "type": "function"
    }
  ],
  "bytecode": "0x60808060405234602757600080546001600160a01b03191633179055612bfd908161002d8239f35b600080fdfe610100604052600436101561001357600080fd5b60003560e01c80630668957c14611ed8578063073df14514611a89578063116f5c1e146116465780632f04e064146115d457806334461067146113ec5780633f4eac601461129f57806344c2f653146111f557806346be3a4314610fc057806365dd152c14610ed65780637198ec1a14610ea25780637599be5d14610e845780637cf1e44514610c6f5780638da5cb5b14610c465780638f9c79ed14610c0757806394f0df6114610bae57806398fc90e914610b1f578063996440c614610ae05780639bd66dbe14610a4c578063a0d7cbec14610a16578063a342a18214610985578063aae56a671461087c578063b5368e20146107c3578063c9596248146106a0578063d16682a7146105e5578063d9a5ec1b14610513578063e0aa3d86146104bf578063e75b8b23146101745763e8e0b05c1461015157600080fd5b3461016f57600036600319011261016f576020600154604051908152f35b600080fd5b3461016f57602036600319011261016f576004356000610240604051610199816120c8565b828152826020820152826040820152606080820152606060808201528260a0820152606060c08201528260e082015282610100820152826101208201526060610140820152606061016082015282610180820152826101a0820152826101c0820152826101e082015282610200820152826102208201520152801515806104b3575b610224906121d7565b61023661023133836124e1565b612217565b60005260086020526040600020601060405191610252836120c8565b8054835260018101546001600160a01b039081166020850152600282015416604084015261028260038201612105565b606084015261029360048201612105565b6080840152600581015460a08401526102ae60068201612105565b60c0840152600781015460e0840152600881015461010084015260ff6009820154166101208401526102e2600a8201612105565b6101408401526102f4600b8201612105565b61016084015260ff600c82015481811661030d81611ff9565b610180860152818160081c1661032281611ff9565b6101a0860152831c1615156101c0840152600d8101546101e0840152600e81015461020084015260ff600f8201541661022084015201546102408201526040518091602082528051602083015260018060a01b03602082015116604083015260018060a01b0360408201511660608301526102406104496104316103f36103d36103bd606087015161026060808a0152610280890190611fb8565b6080870151888203601f190160a08a0152611fb8565b60a086015160c088015260c0860151601f198883030160e0890152611fb8565b60e085015161010087015261010085015161012087015260ff61012086015116610140870152610140850151601f1987830301610160880152611fb8565b610160840151858203601f1901610180870152611fb8565b9161018081015161045981611ff9565b6101a08501526101a081015161046e81611ff9565b6101c08501526101c081015115156101e08501526101e081015161020085015261020081015161022085015260ff610220820151168285015201516102608301520390f35b5060075481111561021b565b3461016f57604036600319011261016f576104d861205c565b600435600052600a60205260406000209060018060a01b0316600052602052602060ff604060002054166040519061050f81611ff9565b8152f35b3461016f57604036600319011261016f5760043561052f61205c565b8160005260086020526040600020821515806105d9575b61054f90612253565b600101546001600160a01b0316331480156105c5575b61056e906123fb565b6000828152600a602090815260408083206001600160a01b0394909416808452939091528120805460ff191690559091907f125883b94692baebecad9f111ed97ffa626523bbbadc6b0ef85ee1b56b9e52d59080a3005b506000546001600160a01b03163314610565565b50600754831115610546565b3461016f57604036600319011261016f57600435806000526008602052604060002060018060a01b036001820154163314801561068c575b15610659576024356010820155600e4291015533907f12405371fe3db9ad1158025a881b7f5ae5bbbcd68e02ad62543a322a807143eb600080a3005b60405162461bcd60e51b815260206004820152600b60248201526a139bdd08185b1b1bddd95960aa1b6044820152606490fd5b506000546001600160a01b0316331461061d565b3461016f57604036600319011261016f576004356001600160401b03811161016f576106d0903690600401612019565b90602435916001600160401b03831161016f576107b2610711926106fb6107b9953690600401612019565b94906040519561070a876120ac565b3691612397565b84526005602060405161072482826120e4565b6000815281870152600060408701526000606087015260006080870152600060a087015260405161075582826120e4565b6000815260c087015260405161076b82826120e4565b6000815260e08701526000610100870152600061012087015260006101408701526000610160870152336000525260ff604060002054166000146107bb5733923691612397565b90336125f0565b005b60009261070a565b3461016f57602036600319011261016f576001600160a01b036107e4612046565b166000526003602052604060002080546005820154600683015460078401549061086861081360028701612105565b9561085a61082f600461082860038501612105565b9301612105565b9161084c604051998a998a5260e060208b015260e08a0190611fb8565b9088820360408a0152611fb8565b908682036060880152611fb8565b92608085015260a084015260c08301520390f35b3461016f57606036600319011261016f5760043561089861205c565b9060443591600383101561016f5781600052600860205260018060a01b036001604060002001541633148015610971575b156109375760207f671735d12e3f36346cd7bd90c76122d46c8b66c4b0a01e1a9f1f6709beca8fbf9183600052600a8252604060002060018060a01b038216600052825261091b85604060002061231a565b6040519461092881611ff9565b85526001600160a01b031693a3005b60405162461bcd60e51b81526020600482015260126024820152714f776e65722f70617469656e74206f6e6c7960701b6044820152606490fd5b506000546001600160a01b031633146108c9565b3461016f57602036600319011261016f576001600160a01b036109a6612046565b168060005260056020526109c160ff6040600020541661243c565b806000526006602052600260406000200160018060a01b033316600052602052604060002060ff198154169055337febecee2d3f2ea272f73dd9d9ccc0bacd11280d61240332cbcd8a68173ae5cc2c600080a3005b3461016f57604036600319011261016f576020610a42610a34612046565b610a3c61205c565b906124ae565b6040519015158152f35b3461016f57602036600319011261016f576001600160a01b03610a6d612046565b16806000526005602052610a8860ff6040600020541661243c565b806000526006602052600260406000200160018060a01b0333166000526020526040600020600160ff19825416179055337f8105c574d2239a3a4f73f5efc5bc253cffb275647df535adfa2c240739cc9220600080a3005b3461016f57602036600319011261016f576001600160a01b03610b01612046565b166000526005602052602060ff604060002054166040519015158152f35b3461016f57602036600319011261016f57610b38612046565b610b4d60018060a01b03600054163314612475565b6001600160a01b0316600081815260056020526040902054610b719060ff1661243c565b806000526005602052604060002060ff1981541690557f493d7cf6a7c880406a55654d6727464ea088bd01d40498e1987a327e68961ab8600080a2005b3461016f57604036600319011261016f57610bc7612046565b6001600160a01b031660009081526009602052604090208054602435919082101561016f57602091610bf8916121a9565b90549060031b1c604051908152f35b3461016f57602036600319011261016f576001600160a01b03610c28612046565b166000526002602052602060ff604060002054166040519015158152f35b3461016f57600036600319011261016f576000546040516001600160a01b039091168152602090f35b3461016f57604036600319011261016f57610c88612046565b6024356001600160401b03811161016f57610ca7903690600401612019565b91610cbd60018060a01b03600054163314612475565b6001600160a01b031660008181526005602052604090205490919060ff16610e4e576000828152600560209081526040808320805460ff19166001908117909155600690925290912080546001600160a01b0319168417815501926001600160401b038111610e3857610d3a81610d348654612072565b866122ba565b600093601f8211600114610db657610d8c82807f0ee331c9cfbbc9903648d754b8c881413fa4e0b00b6de7074f9bb7ec3aad42ef9697600091610dab575b508160011b916000199060031b1c19161790565b90555b610da6604051928392602084526020840191612376565b0390a2005b905085013588610d78565b80855260208520601f19831695805b878110610e205750837f0ee331c9cfbbc9903648d754b8c881413fa4e0b00b6de7074f9bb7ec3aad42ef969710610e06575b5050600182811b019055610d8f565b840135600019600385901b60f8161c191690558580610df7565b90916020600181928589013581550193019101610dc5565b634e487b7160e01b600052604160045260246000fd5b60405162461bcd60e51b815260206004820152600e60248201526d20b63932b0b23c903237b1ba37b960911b6044820152606490fd5b3461016f57600036600319011261016f576020600754604051908152f35b3461016f57602036600319011261016f576004356000526004602052602060018060a01b0360406000205416604051908152f35b3461016f57604036600319011261016f57600435610ef261205c565b816000526008602052604060002082151580610fb4575b610f1290612253565b600101546001600160a01b031633148015610fa0575b610f31906123fb565b60018060a01b031690816000526005602052610f5460ff6040600020541661243c565b80600052600a6020526040600020826000526020526040600020600160ff198254161790557f3c3a9147a1fc73dd51a32f4d10c43d457e8cb826eb6f35cac6349eb965ba82b4600080a3005b506000546001600160a01b03163314610f28565b50600754831115610f09565b3461016f57606036600319011261016f57610fd9612046565b6024356001600160401b03811161016f57610ff8903690600401612019565b91604435916001600160401b03831161016f57610180600319843603011261016f57336001600160a01b0383161480156111cc575b1561119a576110589033600052600560205260ff604060002054166000146111925733943691612397565b60009360405192611068846120ac565b84600401356001600160401b03811161118e5761108b90600436918801016123dd565b845260248501356001600160401b03811161118e576110b090600436918801016123dd565b602085015260448501356040850152606485013560608501526084850135608085015260a485013560ff8116810361118e5760a085015260c48501356001600160401b03811161118e5761110a90600436918801016123dd565b60c085015260e48501356001600160401b03811161118e5761113290600436918801016123dd565b60e0850152610104850135600381101561118e57610100850152610124850135600381101561118e57610120850152610144850135801515810361118e5761118b956101649161014087015201356101608501526125f0565b80f35b8680fd5b60009461070a565b60405162461bcd60e51b815260206004820152600a602482015269139bc818dbdb9cd95b9d60b21b6044820152606490fd5b5033600052600560205260ff60406000205416801561102d57506111f082336124ae565b61102d565b3461016f57600036600319011261016f5733600052600960205260406000206040518060208354918281520190819360005260206000209060005b81811061128957505050816112469103826120e4565b6040519182916020830190602084525180915260408301919060005b818110611270575050500390f35b8251845285945060209384019390920191600101611262565b8254845260209093019260019283019201611230565b3461016f57602036600319011261016f576004356001600160401b03811161016f576112cf903690600401612019565b33600052600560205260ff60406000205416156113b9573360005260066020526001604060002001906001600160401b038111610e385761131a816113148454612072565b846122ba565b6000601f821160011461135a57819061134b939460009261134f575b50508160011b916000199060031b1c19161790565b9055005b013590508480611336565b601f198216938382526020822091805b8681106113a15750836001959610611387575b505050811b019055005b0135600019600384901b60f8161c1916905583808061137d565b9092602060018192868601358155019401910161136a565b60405162461bcd60e51b815260206004820152600b60248201526a446f63746f72206f6e6c7960a81b6044820152606490fd5b3461016f57602036600319011261016f576004356000908152600860205260409020805460018201546001600160a01b0390811660a05260028301541660e05261143860038301612105565b9161144560048201612105565b9260058201546006830161145890612105565b60078401546008850154600986015460ff1690611477600a8801612105565b93611484600b8901612105565b95600c890154608052600d8901549a600e8a015498600f8b015460ff169a601001549b60405160c05260c0515260a05160c0516020015260e05160c0516040015260c051606001610260905260c051610260016114e091611fb8565b60c051810360c051608001526114f591611fb8565b9060c05160a0015260c051810360c05160c0015261151291611fb8565b9260c05160e0015260c051610100015260c051610120015260c051810360c051610140015261154091611fb8565b60c051810360c051610160015261155691611fb8565b9360805160ff1661156690611ff9565b60805160ff1660c051610180015260805160081c60ff1661158690611ff9565b60805160081c60ff1660c0516101a0015260805160101c60ff16151560c0516101c0015260c0516101e0015260c051610200015260c051610220015260c051610240015260c051900360c051f35b3461016f57602036600319011261016f5761163a6001600160a01b036115f8612046565b16806000526006602052600160406000200190600052600560205261162560ff6040600020541691612105565b90604051928392604084526040840190611fb8565b90151560208301520390f35b3461016f5760a036600319011261016f576004356001600160401b03811161016f57611676903690600401612019565b906024356001600160401b03811161016f57611696903690600401612019565b9190926044356001600160401b03811161016f576116b8903690600401612019565b909433600052600260205260ff60406000205416611a52576116db600154612351565b600181815533600081815260036020526040902092835590820180546001600160a01b03191690911790556002016001600160401b038411610e385761172b846117258354612072565b836122ba565b600084601f81116001146119ef5780611759926000916119e457508160011b916000199060031b1c19161790565b90555b33600052600360205260036040600020016001600160401b038611610e3857611789866117258354612072565b600086601f811160011461198157806117b79260009161197657508160011b916000199060031b1c19161790565b90555b33600052600360205260046040600020016001600160401b038311610e38576117e7836117258354612072565b6000601f84116001146118e6576118d6928492611841847ff618203adf55f06338b71fc1939f4061f1593493c1a8a5aa0ae8f759ab378c189998976118c6956000916118db57508160011b916000199060031b1c19161790565b90555b33600081815260036020908152604080832060643560058201556084356006909101556001805484526004835281842080546001600160a01b03191686179055938352600290915290819020805460ff19168317905590549051606080825291999097889791926118b89290890191612376565b918683036020880152612376565b9083820360408501523397612376565b0390a3005b90508c01358d610d78565b8181526020812090601f198516815b8a82821061195e575050926118c6926118d69592877ff618203adf55f06338b71fc1939f4061f1593493c1a8a5aa0ae8f759ab378c189a99989610611944575b5050600184811b019055611844565b8b0135600019600387901b60f8161c191690558a80611935565b600184956020939584930135815501940192016118f5565b90508401358a610d78565b50818152602081209087601f198116825b8181106119c95750106119af575b5050600186811b0190556117ba565b830135600019600389901b60f8161c1916905587806119a0565b8684013585556001909401936020938401938b935001611992565b90508701358a610d78565b50818152602081209085601f198116825b818110611a37575010611a1d575b5050600184811b01905561175c565b860135600019600387901b60f8161c191690558780611a0e565b89840135855560019094019360209384019389935001611a00565b60405162461bcd60e51b815260206004820152600f60248201526e105b1c9958591e481c185d1a595b9d608a1b6044820152606490fd5b3461016f57604036600319011261016f576004356024356001600160401b03811161016f578060040190610160600319823603011261016f5782151580611ecc575b611ad490612253565b82600052600860205260406000209160018060a01b0360018401541633148015611eb6575b8015611ea2575b15611e6c57611b0f8180612288565b60068501916001600160401b038211610e3857611b3682611b308554612072565b856122ba565b600090601f8311600114611e0857611b66929160009183611dfd5750508160011b916000199060031b1c19161790565b90555b602482013560078401556044820135600884015560648201356005840155611b936084830161230c565b60ff60098501911660ff19825416179055611bb160a4830182612288565b600a8501916001600160401b038211610e3857611bd282611b308554612072565b600090601f8311600114611d94579180611c0892611c15969594600092611d895750508160011b916000199060031b1c19161790565b90555b60c4830190612288565b600b8401916001600160401b038211610e3857611c3682611b308554612072565b600090601f8311600114611d2557611c66929160009183611d1a5750508160011b916000199060031b1c19161790565b90555b60e481013590600382101561016f57611c86600c8401928361231a565b610104810135600381101561016f57611c9f9083612332565b61014481013590811515820361016f57611cd461012492611cda949062ff0000825491151560101b169062ff00001916179055565b0161230c565b60ff600f8301911660ff19825416179055600e4291015533907f12405371fe3db9ad1158025a881b7f5ae5bbbcd68e02ad62543a322a807143eb600080a3005b013590508780611336565b8382526020822091601f198416815b818110611d715750908460019594939210611d57575b505050811b019055611c69565b0135600019600384901b60f8161c19169055868080611d4a565b91936020600181928787013581550195019201611d34565b013590508980611336565b8382526020822091601f198416815b818110611de55750916001939185611c159897969410611dcb575b505050811b019055611c0b565b0135600019600384901b60f8161c19169055888080611dbe565b91936020600181928787013581550195019201611da3565b013590508880611336565b8382526020822091601f198416815b818110611e545750908460019594939210611e3a575b505050811b019055611b69565b0135600019600384901b60f8161c19169055878080611e2d565b91936020600181928787013581550195019201611e17565b60405162461bcd60e51b815260206004820152600e60248201526d139bdd08185d5d1a1bdc9a5e995960921b6044820152606490fd5b506000546001600160a01b03163314611b00565b5060028301546001600160a01b03163314611af9565b50600754831115611acb565b3461016f57602036600319011261016f5760043580151580611fac575b611efe906121d7565b611f0b61023133836124e1565b60005260086020526040600020805460018060a01b036001830154169160018060a01b036002820154169060ff600982015416916005820154611f8a600d84015492611f64600660ff600c88015460081c169601612105565b906040519889988952602089015260408801526101006060880152610100870190611fb8565b93608086015260a085015260c0840152611fa381611ff9565b60e08301520390f35b50600754811115611ef5565b919082519283825260005b848110611fe4575050826000602080949584010152601f8019910116010190565b80602080928401015182828601015201611fc3565b6003111561200357565b634e487b7160e01b600052602160045260246000fd5b9181601f8401121561016f578235916001600160401b03831161016f576020838186019501011161016f57565b600435906001600160a01b038216820361016f57565b602435906001600160a01b038216820361016f57565b90600182811c921680156120a2575b602083101461208c57565b634e487b7160e01b600052602260045260246000fd5b91607f1691612081565b61018081019081106001600160401b03821117610e3857604052565b61026081019081106001600160401b03821117610e3857604052565b90601f801991011681019081106001600160401b03821117610e3857604052565b906040519182600082549261211984612072565b80845293600181169081156121875750600114612140575b5061213e925003836120e4565b565b90506000929192526020600020906000915b81831061216b57505090602061213e9282010138612131565b6020919350806001915483858901015201910190918492612152565b90506020925061213e94915060ff191682840152151560051b82010138612131565b80548210156121c15760005260206000200190600090565b634e487b7160e01b600052603260045260246000fd5b156121de57565b60405162461bcd60e51b8152602060048201526011602482015270149958dbdc99081251081a5b9d985b1a59607a1b6044820152606490fd5b1561221e57565b60405162461bcd60e51b815260206004820152600d60248201526c2737903832b936b4b9b9b4b7b760991b6044820152606490fd5b1561225a57565b60405162461bcd60e51b8152602060048201526006602482015265109859081a5960d21b6044820152606490fd5b903590601e198136030182121561016f57018035906001600160401b03821161016f5760200191813603831361016f57565b601f82116122c757505050565b6000526020600020906020601f840160051c83019310612302575b601f0160051c01905b8181106122f6575050565b600081556001016122eb565b90915081906122e2565b3560ff8116810361016f5790565b9061232481611ff9565b60ff80198354169116179055565b9061233c81611ff9565b61ff0082549160081b169061ff001916179055565b60001981146123605760010190565b634e487b7160e01b600052601160045260246000fd5b908060209392818452848401376000828201840152601f01601f1916010190565b9291926001600160401b038211610e3857604051916123c0601f8201601f1916602001846120e4565b82948184528183011161016f578281602093846000960137010152565b9080601f8301121561016f578160206123f893359101612397565b90565b1561240257565b60405162461bcd60e51b815260206004820152601260248201527150617469656e742f6f776e6572206f6e6c7960701b6044820152606490fd5b1561244357565b60405162461bcd60e51b815260206004820152600a6024820152692737ba103237b1ba37b960b11b6044820152606490fd5b1561247c57565b60405162461bcd60e51b815260206004820152600a6024820152694f776e6572206f6e6c7960b01b6044820152606490fd5b60018060a01b0316600052600660205260026040600020019060018060a01b031660005260205260ff6040600020541690565b600081815260086020526040902060018101546001600160a01b039081169290841691908284146125ac57600052600a60205260406000208260005260205260ff6040600020541661253281611ff9565b6125a357600c015460101c60ff168061258b575b61258357600052600560205260ff604060002054169182612572575b505061256d57600090565b600190565b61257c92506124ae565b3880612562565b505050600190565b5080600052600560205260ff60406000205416612546565b50505050600190565b5050505050600190565b805468010000000000000000811015610e38576125d8916001820181556121a9565b819291549060031b91821b91600019901b1916179055565b9092916125fe600754612351565b918260075582600052600860205260406000208381556001810160018060a01b0383166bffffffffffffffffffffffff60a01b8254161790556002810160018060a01b0387166bffffffffffffffffffffffff60a01b8254161790556003810183516001600160401b038111610e385761267c816113148454612072565b6020601f8211600114612b635790806126aa92600091612b5857508160011b916000199060031b1c19161790565b90555b8451805160048301916001600160401b038211610e38576126d282611b308554612072565b602090601f8311600114612af1576127029291600091836129805750508160011b916000199060031b1c19161790565b90555b6020850194855160068301908051906001600160401b038211610e385761273082611b308554612072565b602090601f8311600114612a8a576127609291600091836129805750508160011b916000199060031b1c19161790565b90555b60408101516007830155606081015160088301556080810151600583015560ff60a08201511660ff60098401911660ff1982541617905560c0810151600a8301908051906001600160401b038211610e38576127c382611b308554612072565b602090601f8311600114612a23576127f39291600091836129805750508160011b916000199060031b1c19161790565b90555b60e08101518051600b8401916001600160401b038211610e385761281e82611b308554612072565b602090601f831160011461298b5761295c946129439794612880857f0245d343b711757637a3608d9f701ceab53135194074c8efbe2dab09feabb7899b9996601096610160966000926129805750508160011b916000199060031b1c19161790565b90555b6128d961010082015161289581611ff9565b6128a3600c8701918261231a565b6128bb6101208401516128b581611ff9565b82612332565b610140830151815462ff0000191690151560101b62ff000016179055565b42600d85015542600e850155600f840160ff198154169055015191015560018060a01b0316958660005260096020526129168660406000206125b6565b86600052600260205260ff60406000205416612961575b5196604051938493604085526040850190611fb8565b83810360208501526001600160a01b0390911697611fb8565b0390a4565b86600052600360205261297b8660076040600020016125b6565b61292d565b015190503880611336565b90601f1983169184600052816000209260005b818110612a0b5750946001856010956101609561295c9a957f0245d343b711757637a3608d9f701ceab53135194074c8efbe2dab09feabb7899e9c996129439e9b106129f2575b505050811b019055612883565b015160001960f88460031b161c191690553880806129e5565b9293602060018192878601518155019501930161299e565b90601f1983169184600052816000209260005b818110612a725750908460019594939210612a59575b505050811b0190556127f6565b015160001960f88460031b161c19169055388080612a4c565b92936020600181928786015181550195019301612a36565b90601f1983169184600052816000209260005b818110612ad95750908460019594939210612ac0575b505050811b019055612763565b015160001960f88460031b161c19169055388080612ab3565b92936020600181928786015181550195019301612a9d565b90601f1983169184600052816000209260005b818110612b405750908460019594939210612b27575b505050811b019055612705565b015160001960f88460031b161c19169055388080612b1a565b92936020600181928786015181550195019301612b04565b905086015138610d78565b601f1982169083600052806000209160005b818110612baf57509083600194939210612b96575b5050811b0190556126ad565b87015160001960f88460031b161c191690553880612b8a565b9192602060018192868c015181550194019201612b7556fea2646970667358221220a472f968689e0d503219dadd57eb5290e61840222e23e642080d2a96a2409edf64736f6c634300081e0033",
  "immutableReferences": {},
  "source": "// SPDX-License-Identifier: MIT\r\npragma solidity ^0.8.0;\r\n\r\n/**\r\n * @title HealthRecord\r\n * @dev On-chain registry for Patients, Doctors, and enriched Medical Records.\r\n * Adds consent, ACL, AI metadata, imaging, and audit fields.\r\n */\r\ncontract HealthRecord {\r\n    // --- Admin ---\r\n    address public owner;\r\n\r\n    modifier onlyOwner() {\r\n        require(msg.sender == owner, \"Owner only\");\r\n        _;\r\n    }\r\n\r\n    modifier onlyDoctor() {\r\n        require(isDoctor[msg.sender], \"Doctor only\");\r\n        _;\r\n    }\r\n\r\n    // --- Enums ---\r\n    enum ReviewStatus { Pending, Verified, Finalized }\r\n    enum ConsentStatus { Pending, Granted, Revoked }\r\n    enum Permission { None, Read, Write }\r\n\r\n    // --- Patients ---\r\n    struct Patient {\r\n        uint256 pId;                 // auto-increment patient id\r\n        address wallet;              // patientAddress\r\n        string name;                 // optional off-chain label\r\n        string labName;              // lab_name\r\n        string labLocation;          // lab location\r\n        bytes32 patientID;           // optional hashed ID\r\n        bytes32 dobHash;             // optional hashed DOB\r\n        uint256[] records;           // record ids\r\n    }\r\n\r\n    uint256 public patientCounter;\r\n    mapping(address => bool) public isPatient;\r\n    mapping(address => Patient) private patients; // wallet => patient\r\n    mapping(uint256 => address) public pIdToAddress; // reverse lookup\r\n\r\n    // --- Doctors ---\r\n    struct Doctor {\r\n        address wallet;\r\n        string specialization;\r\n        mapping(address => bool) approvedPatients; // patient wallet => consent\r\n    }\r\n\r\n    mapping(address => bool) public isDoctor; // role flag (admin managed)\r\n    mapping(address => Doctor) private doctors;\r\n\r\n    // --- Records ---\r\n    struct Record {\r\n        uint256 id;                 // recordID\r\n        address patient;            // patient wallet\r\n        address doctor;             // doctor creating/verifying (optional)\r\n        // Imaging\r\n    string imageCID;            // IPFS CID (X-ray). Off-chain asset; CID stored for reference\r\n        string fileName;            // optional label\r\n        bytes32 reportHash;         // hash of report/notes\r\n        // Medical\r\n        string diagnosis;           // e.g., \"Pneumonia\"\r\n        bytes32 treatmentPlanHash;  // hashed prescription/plan\r\n        uint256 followUpDate;       // optional\r\n        // AI metadata\r\n        uint8 aiConfidence;         // 0..100 (%)\r\n        string aiModelVersion;      // model version\r\n        string aiRemarks;           // optional\r\n        // Consent & review state\r\n        ReviewStatus reviewStatus;  // Pending/Verified/Finalized\r\n        ConsentStatus consentStatus;// Granted/Revoked/Pending\r\n        bool emergencyAccessFlag;   // emergency override\r\n        // Audit\r\n        uint256 createdAt;          // created timestamp\r\n        uint256 updatedAt;          // updated timestamp\r\n        uint8 verifiedByMask;       // bit 1: doctor, bit 2: AI\r\n        bytes32 transactionHash;    // tx ref (optional, provided off-chain)\r\n    }\r\n\r\n    uint256 public recordCounter;\r\n    mapping(uint256 => Record) public records;                 // id => record\r\n    mapping(address => uint256[]) public patientRecords;       // patient => record ids\r\n    mapping(uint256 => mapping(address => Permission)) public accessControlList; // per-record ACL\r\n\r\n    // --- Events ---\r\n    event PatientRegistered(uint256 indexed pId, address indexed wallet, string name, string labName, string labLocation);\r\n    event DoctorAdded(address indexed doctorAddress, string specialization);\r\n    event DoctorRemoved(address indexed doctorAddress);\r\n    event ConsentGranted(address indexed patient, address indexed doctor);\r\n    event ConsentRevoked(address indexed patient, address indexed doctor);\r\n    event RecordAdded(uint256 indexed id, address indexed patient, address indexed doctor, string imageCID, string diagnosis);\r\n    event RecordUpdated(uint256 indexed id, address indexed updater);\r\n    event PermissionSet(uint256 indexed recordId, address indexed grantee, Permission permission);\r\n\r\n    constructor() {\r\n        owner = msg.sender;\r\n    }\r\n\r\n    // Helper structs to avoid stack-too-deep\r\n    struct RecordInput {\r\n        string fileName;\r\n        string diagnosis;\r\n        bytes32 treatmentPlanHash;\r\n        uint256 followUpDate;\r\n        bytes32 reportHash;\r\n        uint8 aiConfidence;\r\n        string aiModelVersion;\r\n        string aiRemarks;\r\n        ReviewStatus reviewStatus;\r\n        ConsentStatus consentStatus;\r\n        bool emergencyAccess;\r\n        bytes32 txHash;\r\n    }\r\n\r\n    struct UpdateInput {\r\n        string diagnosis;\r\n        bytes32 treatmentPlanHash;\r\n        uint256 followUpDate;\r\n        bytes32 reportHash;\r\n        uint8 aiConfidence;\r\n        string aiModelVersion;\r\n        string aiRemarks;\r\n        ReviewStatus reviewStatus;\r\n        ConsentStatus consentStatus;\r\n        uint8 verifiedByMask;\r\n        bool emergencyAccess;\r\n    }\r\n\r\n    // --- Admin: manage doctor role ---\r\n    function addDoctor(address _doctorAddress, string calldata _specialization) external onlyOwner {\r\n        require(!isDoctor[_doctorAddress], \"Already doctor\");\r\n        isDoctor[_doctorAddress] = true;\r\n        doctors[_doctorAddress].wallet = _doctorAddress;\r\n        doctors[_doctorAddress].specialization = _specialization;\r\n        emit DoctorAdded(_doctorAddress, _specialization);\r\n    }\r\n\r\n    function removeDoctor(address _doctorAddress) external onlyOwner {\r\n        require(isDoctor[_doctorAddress], \"Not doctor\");\r\n        isDoctor[_doctorAddress] = false;\r\n        emit DoctorRemoved(_doctorAddress);\r\n    }\r\n\r\n    function updateDoctorSpecialization(string calldata _specialization) external onlyDoctor {\r\n        doctors[msg.sender].specialization = _specialization;\r\n    }\r\n\r\n    function getDoctor(address _doctor) external view returns (string memory specialization, bool registered) {\r\n        return (doctors[_doctor].specialization, isDoctor[_doctor]);\r\n    }\r\n\r\n    // --- Patient registry ---\r\n    function registerPatient(\r\n        string calldata _name,\r\n        string calldata _labName,\r\n        string calldata _labLocation,\r\n        bytes32 _patientID,\r\n        bytes32 _dobHash\r\n    ) external {\r\n        require(!isPatient[msg.sender], \"Already patient\");\r\n        patientCounter++;\r\n        patients[msg.sender].pId = patientCounter;\r\n        patients[msg.sender].wallet = msg.sender;\r\n        patients[msg.sender].name = _name;\r\n        patients[msg.sender].labName = _labName;\r\n        patients[msg.sender].labLocation = _labLocation;\r\n        patients[msg.sender].patientID = _patientID;\r\n        patients[msg.sender].dobHash = _dobHash;\r\n        pIdToAddress[patientCounter] = msg.sender;\r\n        isPatient[msg.sender] = true;\r\n        emit PatientRegistered(patientCounter, msg.sender, _name, _labName, _labLocation);\r\n    }\r\n\r\n    function getPatient(address _wallet)\r\n        external\r\n        view\r\n        returns (\r\n            uint256 pId,\r\n            string memory name,\r\n            string memory labName,\r\n            string memory labLocation,\r\n            bytes32 patientID,\r\n            bytes32 dobHash,\r\n            uint256 recordCount\r\n        )\r\n    {\r\n        Patient storage p = patients[_wallet];\r\n        return (p.pId, p.name, p.labName, p.labLocation, p.patientID, p.dobHash, p.records.length);\r\n    }\r\n\r\n    // --- Consent (patient -> doctor) ---\r\n    function grantDoctorConsent(address _doctor) external {\r\n        require(isDoctor[_doctor], \"Not doctor\");\r\n        doctors[_doctor].approvedPatients[msg.sender] = true;\r\n        emit ConsentGranted(msg.sender, _doctor);\r\n    }\r\n\r\n    function revokeDoctorConsent(address _doctor) external {\r\n        require(isDoctor[_doctor], \"Not doctor\");\r\n        doctors[_doctor].approvedPatients[msg.sender] = false;\r\n        emit ConsentRevoked(msg.sender, _doctor);\r\n    }\r\n\r\n    function isDoctorApprovedForPatient(address _doctor, address _patient) public view returns (bool) {\r\n        return doctors[_doctor].approvedPatients[_patient];\r\n    }\r\n\r\n    // --- Records ---\r\n    // Backward-compatible simple addRecord (patient self-add)\r\n    function addRecord(string calldata _imageCID, string calldata _fileName) external {\r\n        RecordInput memory input = RecordInput({\r\n            fileName: _fileName,\r\n            diagnosis: \"\",\r\n            treatmentPlanHash: bytes32(0),\r\n            followUpDate: 0,\r\n            reportHash: bytes32(0),\r\n            aiConfidence: 0,\r\n            aiModelVersion: \"\",\r\n            aiRemarks: \"\",\r\n            reviewStatus: ReviewStatus.Pending,\r\n            consentStatus: ConsentStatus.Pending,\r\n            emergencyAccess: false,\r\n            txHash: bytes32(0)\r\n        });\r\n        _addRecordExtended(\r\n            msg.sender,\r\n            isDoctor[msg.sender] ? msg.sender : address(0),\r\n            _imageCID,\r\n            input\r\n        );\r\n    }\r\n\r\n    // Extended addRecord allowing doctor or patient to create for a patient\r\n    function addRecordExtended(\r\n        address _patient,\r\n        string calldata _imageCID,\r\n        RecordInput calldata input\r\n    ) external {\r\n        // Access: patient themselves OR approved doctor\r\n        bool allowed = (msg.sender == _patient) || (isDoctor[msg.sender] && isDoctorApprovedForPatient(msg.sender, _patient));\r\n        require(allowed, \"No consent\");\r\n        address doctorAddr = isDoctor[msg.sender] ? msg.sender : address(0);\r\n        _addRecordExtended(\r\n            _patient,\r\n            doctorAddr,\r\n            _imageCID,\r\n            input\r\n        );\r\n    }\r\n\r\n    function _addRecordExtended(\r\n        address _patient,\r\n        address _doctor,\r\n        string memory _imageCID,\r\n        RecordInput memory input\r\n    ) internal {\r\n        recordCounter++;\r\n        uint256 newId = recordCounter;\r\n        Record storage r = records[newId];\r\n        r.id = newId;\r\n        r.patient = _patient;\r\n        r.doctor = _doctor;\r\n    r.imageCID = _imageCID;\r\n        r.fileName = input.fileName;\r\n        r.diagnosis = input.diagnosis;\r\n        r.treatmentPlanHash = input.treatmentPlanHash;\r\n        r.followUpDate = input.followUpDate;\r\n        r.reportHash = input.reportHash;\r\n        r.aiConfidence = input.aiConfidence;\r\n        r.aiModelVersion = input.aiModelVersion;\r\n        r.aiRemarks = input.aiRemarks;\r\n        r.reviewStatus = input.reviewStatus;\r\n        r.consentStatus = input.consentStatus;\r\n        r.emergencyAccessFlag = input.emergencyAccess;\r\n        r.createdAt = block.timestamp;\r\n        r.updatedAt = block.timestamp;\r\n        r.verifiedByMask = 0; // none initially\r\n        r.transactionHash = input.txHash; // optional; off-chain can update later\r\n\r\n        patientRecords[_patient].push(newId);\r\n        if (isPatient[_patient]) {\r\n            patients[_patient].records.push(newId);\r\n        }\r\n        emit RecordAdded(newId, _patient, _doctor, _imageCID, input.diagnosis);\r\n    }\r\n\r\n    // Update selective fields, callable by the patient, the assigned doctor, or owner\r\n    function updateRecord(uint256 _recordId, UpdateInput calldata u) external {\r\n        require(_recordId > 0 && _recordId <= recordCounter, \"Bad id\");\r\n        Record storage r = records[_recordId];\r\n        require(\r\n            msg.sender == r.patient || msg.sender == r.doctor || msg.sender == owner,\r\n            \"Not authorized\"\r\n        );\r\n        r.diagnosis = u.diagnosis;\r\n        r.treatmentPlanHash = u.treatmentPlanHash;\r\n        r.followUpDate = u.followUpDate;\r\n        r.reportHash = u.reportHash;\r\n        r.aiConfidence = u.aiConfidence;\r\n        r.aiModelVersion = u.aiModelVersion;\r\n        r.aiRemarks = u.aiRemarks;\r\n        r.reviewStatus = u.reviewStatus;\r\n        r.consentStatus = u.consentStatus;\r\n        r.emergencyAccessFlag = u.emergencyAccess;\r\n        r.verifiedByMask = u.verifiedByMask; // 1 doctor, 2 AI, 3 both\r\n        r.updatedAt = block.timestamp;\r\n        emit RecordUpdated(_recordId, msg.sender);\r\n    }\r\n\r\n    // --- Legacy-style ACL wrappers for backwards compatibility ---\r\n    event AccessGranted(uint indexed recordId, address indexed doctorAddress);\r\n    event AccessRevoked(uint indexed recordId, address indexed doctorAddress);\r\n\r\n    function grantAccess(uint _recordId, address _doctorAddress) external {\r\n        Record storage r = records[_recordId];\r\n        require(_recordId > 0 && _recordId <= recordCounter, \"Bad id\");\r\n        require(msg.sender == r.patient || msg.sender == owner, \"Patient/owner only\");\r\n        require(isDoctor[_doctorAddress], \"Not doctor\");\r\n        accessControlList[_recordId][_doctorAddress] = Permission.Read;\r\n        emit AccessGranted(_recordId, _doctorAddress);\r\n    }\r\n\r\n    function revokeAccess(uint _recordId, address _doctorAddress) external {\r\n        Record storage r = records[_recordId];\r\n        require(_recordId > 0 && _recordId <= recordCounter, \"Bad id\");\r\n        require(msg.sender == r.patient || msg.sender == owner, \"Patient/owner only\");\r\n        accessControlList[_recordId][_doctorAddress] = Permission.None;\r\n        emit AccessRevoked(_recordId, _doctorAddress);\r\n    }\r\n\r\n    // Optional: set/patch transaction hash ref from client after tx mined\r\n    function setRecordTransactionHash(uint256 _recordId, bytes32 _txHash) external {\r\n        Record storage r = records[_recordId];\r\n        require(msg.sender == r.patient || msg.sender == owner, \"Not allowed\");\r\n        r.transactionHash = _txHash;\r\n        r.updatedAt = block.timestamp;\r\n        emit RecordUpdated(_recordId, msg.sender);\r\n    }\r\n\r\n    // --- ACL ---\r\n    function setRecordPermission(uint256 _recordId, address _grantee, Permission _perm) external {\r\n        Record storage r = records[_recordId];\r\n        require(msg.sender == r.patient || msg.sender == owner, \"Owner/patient only\");\r\n        accessControlList[_recordId][_grantee] = _perm;\r\n        emit PermissionSet(_recordId, _grantee, _perm);\r\n    }\r\n\r\n    // --- Views ---\r\n    function getMyRecordIds() external view returns (uint256[] memory) {\r\n        return patientRecords[msg.sender];\r\n    }\r\n\r\n    function _hasRecordAccess(uint256 _recordId, address _who) internal view returns (bool) {\r\n        Record storage r = records[_recordId];\r\n        if (_who == r.patient) return true;\r\n        if (accessControlList[_recordId][_who] != Permission.None) return true;\r\n        if (r.emergencyAccessFlag && isDoctor[_who]) return true;\r\n        if (isDoctor[_who] && isDoctorApprovedForPatient(_who, r.patient)) return true;\r\n        return false;\r\n    }\r\n\r\n    function getRecordById(uint256 _recordId) external view returns (Record memory) {\r\n        require(_recordId > 0 && _recordId <= recordCounter, \"Record ID invalid\");\r\n        require(_hasRecordAccess(_recordId, msg.sender), \"No permission\");\r\n        return records[_recordId];\r\n    }\r\n\r\n    // Summary of on-chain fields aligning with your table (timestamp = createdAt)\r\n    function getRecordSummary(uint256 _recordId)\r\n        external\r\n        view\r\n        returns (\r\n            uint256 recordID,\r\n            address patientAddress,\r\n            address doctorAddress,\r\n            string memory diagnosis,\r\n            uint8 aiConfidence,\r\n            bytes32 reportHash,\r\n            uint256 timestamp,\r\n            ConsentStatus consentStatus\r\n        )\r\n    {\r\n        require(_recordId > 0 && _recordId <= recordCounter, \"Record ID invalid\");\r\n        require(_hasRecordAccess(_recordId, msg.sender), \"No permission\");\r\n        Record storage r = records[_recordId];\r\n        return (\r\n            r.id,\r\n            r.patient,\r\n            r.doctor,\r\n            r.diagnosis,\r\n            r.aiConfidence,\r\n            r.reportHash,\r\n            r.createdAt,\r\n            r.consentStatus\r\n        );\r\n    }\r\n}\r\n",
  "sourcePath": "C:\\xampp\\htdocs\\ABHA 2.0\\abha\\contracts\\HealthRecord.sol",
  "compiler": {
    "name": "solc",
    "version": "0.8.30+commit.73712a01.Emscripten.clang"
  },
  "schemaVersion": "3.4.16",
  "updatedAt": "2025-09-06T10:31:32.025Z",
  "devdoc": {
    "details": "On-chain registry for Patients, Doctors, and enriched Medical Records. Adds consent, ACL, AI metadata, imaging, and audit fields.",
    "kind": "dev",
    "methods": {},
    "title": "HealthRecord",
    "version": 1
  },
  "userdoc": {
    "kind": "user",
    "methods": {},
    "version": 1
  }
}